{"abi":[{"type":"constructor","inputs":[{"name":"_launchToken","type":"address","internalType":"contract MockNewAssetToken"},{"name":"_jitVault","type":"address","internalType":"contract IJITLiquidityVault"},{"name":"initialOwner","type":"address","internalType":"address"}],"stateMutability":"nonpayable"},{"type":"function","name":"availableToMint","inputs":[{"name":"poolId","type":"bytes32","internalType":"PoolId"}],"outputs":[{"name":"","type":"uint256","internalType":"uint256"}],"stateMutability":"view"},{"type":"function","name":"configureSchedule","inputs":[{"name":"poolId","type":"bytes32","internalType":"PoolId"},{"name":"startBlock","type":"uint64","internalType":"uint64"},{"name":"endBlock","type":"uint64","internalType":"uint64"},{"name":"maxTotal","type":"uint128","internalType":"uint128"},{"name":"maxPerBlock","type":"uint128","internalType":"uint128"},{"name":"enabled","type":"bool","internalType":"bool"}],"outputs":[],"stateMutability":"nonpayable"},{"type":"function","name":"jitVault","inputs":[],"outputs":[{"name":"","type":"address","internalType":"contract IJITLiquidityVault"}],"stateMutability":"view"},{"type":"function","name":"launchToken","inputs":[],"outputs":[{"name":"","type":"address","internalType":"contract MockNewAssetToken"}],"stateMutability":"view"},{"type":"function","name":"owner","inputs":[],"outputs":[{"name":"","type":"address","internalType":"address"}],"stateMutability":"view"},{"type":"function","name":"renounceOwnership","inputs":[],"outputs":[],"stateMutability":"nonpayable"},{"type":"function","name":"schedules","inputs":[{"name":"","type":"bytes32","internalType":"PoolId"}],"outputs":[{"name":"startBlock","type":"uint64","internalType":"uint64"},{"name":"endBlock","type":"uint64","internalType":"uint64"},{"name":"lastMintBlock","type":"uint64","internalType":"uint64"},{"name":"maxTotal","type":"uint128","internalType":"uint128"},{"name":"mintedTotal","type":"uint128","internalType":"uint128"},{"name":"maxPerBlock","type":"uint128","internalType":"uint128"},{"name":"enabled","type":"bool","internalType":"bool"}],"stateMutability":"view"},{"type":"function","name":"streamToVault","inputs":[{"name":"poolId","type":"bytes32","internalType":"PoolId"}],"outputs":[{"name":"amountMinted","type":"uint256","internalType":"uint256"}],"stateMutability":"nonpayable"},{"type":"function","name":"transferOwnership","inputs":[{"name":"newOwner","type":"address","internalType":"address"}],"outputs":[],"stateMutability":"nonpayable"},{"type":"event","name":"IssuanceStreamed","inputs":[{"name":"poolId","type":"bytes32","indexed":true,"internalType":"PoolId"},{"name":"amount","type":"uint256","indexed":false,"internalType":"uint256"},{"name":"cumulativeMinted","type":"uint256","indexed":false,"internalType":"uint256"}],"anonymous":false},{"type":"event","name":"OwnershipTransferred","inputs":[{"name":"previousOwner","type":"address","indexed":true,"internalType":"address"},{"name":"newOwner","type":"address","indexed":true,"internalType":"address"}],"anonymous":false},{"type":"event","name":"ScheduleConfigured","inputs":[{"name":"poolId","type":"bytes32","indexed":true,"internalType":"PoolId"},{"name":"startBlock","type":"uint64","indexed":false,"internalType":"uint64"},{"name":"endBlock","type":"uint64","indexed":false,"internalType":"uint64"},{"name":"maxTotal","type":"uint128","indexed":false,"internalType":"uint128"},{"name":"maxPerBlock","type":"uint128","indexed":false,"internalType":"uint128"},{"name":"enabled","type":"bool","indexed":false,"internalType":"bool"}],"anonymous":false},{"type":"error","name":"InvalidSchedule","inputs":[]},{"type":"error","name":"OwnableInvalidOwner","inputs":[{"name":"owner","type":"address","internalType":"address"}]},{"type":"error","name":"OwnableUnauthorizedAccount","inputs":[{"name":"account","type":"address","internalType":"address"}]}],"bytecode":{"object":"0x60c060405234801561000f575f5ffd5b50604051610b98380380610b9883398101604081905261002e916100e4565b806001600160a01b03811661005c57604051631e4fbdf760e01b81525f600482015260240160405180910390fd5b6100658161007e565b50506001600160a01b039182166080521660a05261012e565b5f80546001600160a01b038381166001600160a01b0319831681178455604051919092169283917f8be0079c531659141344cd1fd0a4f28419497f9722a3daafe3b4186f6b6457e09190a35050565b6001600160a01b03811681146100e1575f5ffd5b50565b5f5f5f606084860312156100f6575f5ffd5b8351610101816100cd565b6020850151909350610112816100cd565b6040850151909250610123816100cd565b809150509250925092565b60805160a051610a356101635f395f818160dc015281816104f701526105a101525f818161012b015261052f0152610a355ff3fe608060405234801561000f575f5ffd5b5060043610610090575f3560e01c80638da5cb5b116100635780638da5cb5b14610116578063a28a4d8614610126578063c2d152e31461014d578063d1e16bfa14610160578063f2fde38b1461021b575f5ffd5b80635cbda87f1461009457806365607d3e146100ba578063715018a6146100cd5780638ca04f6c146100d7575b5f5ffd5b6100a76100a23660046108c0565b61022e565b6040519081526020015b60405180910390f35b6100a76100c83660046108c0565b610452565b6100d5610657565b005b6100fe7f000000000000000000000000000000000000000000000000000000000000000081565b6040516001600160a01b0390911681526020016100b1565b5f546001600160a01b03166100fe565b6100fe7f000000000000000000000000000000000000000000000000000000000000000081565b6100d561015b366004610908565b61066a565b6101ca61016e3660046108c0565b600160208190525f91825260409091208054918101546002909101546001600160401b0380841693600160401b8104821693600160801b91829004909216926001600160801b0380841693839004811692908216910460ff1687565b604080516001600160401b039889168152968816602088015294909616938501939093526001600160801b039182166060850152811660808401521660a082015290151560c082015260e0016100b1565b6100d5610229366004610979565b610803565b5f818152600160208181526040808420815160e08101835281546001600160401b038082168352600160401b8204811695830195909552600160801b9081900490941692810192909252928301546001600160801b038082166060840152908390048116608083015260029093015492831660a0820152910460ff16151560c082018190526102bf57505f92915050565b80516001600160401b03164310156102d957505f92915050565b80606001516001600160801b031681608001516001600160801b03161061030257505f92915050565b4381604001516001600160401b03160361031e57505f92915050565b5f815f01516001600160401b031682602001516001600160401b031661034491906109ba565b9050805f0361035657505f9392505050565b5f82602001516001600160401b0316431015610386578251610381906001600160401b0316436109ba565b610388565b815b90505f828285606001516001600160801b03166103a591906109d3565b6103af91906109ea565b905083608001516001600160801b031681116103d057505f95945050505050565b5f84608001516001600160801b0316826103ea91906109ba565b90505f85608001516001600160801b031686606001516001600160801b031661041391906109ba565b905080821115610421578091505b8560a001516001600160801b0316821115610447578560a001516001600160801b031691505b509695505050505050565b5f61045c8261022e565b9050805f0361046c57505f919050565b5f828152600160208190526040909120805467ffffffffffffffff60801b1916600160801b436001600160401b031681029190911782559181018054919284926010916104c591859190046001600160801b0316610a09565b82546001600160801b039182166101009390930a9283029190920219909116179055506040516340c10f1960e01b81527f00000000000000000000000000000000000000000000000000000000000000006001600160a01b039081166004830152602482018490527f000000000000000000000000000000000000000000000000000000000000000016906340c10f19906044015f604051808303815f87803b158015610570575f5ffd5b505af1158015610582573d5f5f3e3d5ffd5b505060405163cd13782960e01b815260048101869052602481018590527f00000000000000000000000000000000000000000000000000000000000000006001600160a01b0316925063cd13782991506044015f604051808303815f87803b1580156105ec575f5ffd5b505af11580156105fe573d5f5f3e3d5ffd5b50505050600181015460408051848152600160801b9092046001600160801b0316602083015284917ff895a945a54244deb8ee947ee5b956ab7ba4d5f407b3d4a9a76358362f27d96d910160405180910390a250919050565b61065f610845565b6106685f610871565b565b610672610845565b6001600160401b038516158061069a5750846001600160401b0316846001600160401b031611155b806106ac57506001600160801b038316155b806106be57506001600160801b038216155b156106dc57604051631b742d9d60e31b815260040160405180910390fd5b5f86815260016020819052604090912080546001600160401b038881166fffffffffffffffffffffffffffffffff1992831617600160401b9189169190910217825591810180549092166001600160801b038681169182179384905560028301805487831670ffffffffffffffffffffffffffffffffff1990911617600160801b8715158102919091179091559293929092049091161115610795576001810180546001600160801b03808716600160801b0291161790555b604080516001600160401b038881168252871660208201526001600160801b0386811682840152851660608201528315156080820152905188917f8e94d890c5e58350080f4b88c0e9b7c09c72c69d60088e684a942590af2413ae919081900360a00190a250505050505050565b61080b610845565b6001600160a01b03811661083957604051631e4fbdf760e01b81525f60048201526024015b60405180910390fd5b61084281610871565b50565b5f546001600160a01b031633146106685760405163118cdaa760e01b8152336004820152602401610830565b5f80546001600160a01b038381166001600160a01b0319831681178455604051919092169283917f8be0079c531659141344cd1fd0a4f28419497f9722a3daafe3b4186f6b6457e09190a35050565b5f602082840312156108d0575f5ffd5b5035919050565b80356001600160401b03811681146108ed575f5ffd5b919050565b80356001600160801b03811681146108ed575f5ffd5b5f5f5f5f5f5f60c0878903121561091d575f5ffd5b8635955061092d602088016108d7565b945061093b604088016108d7565b9350610949606088016108f2565b9250610957608088016108f2565b915060a0870135801515811461096b575f5ffd5b809150509295509295509295565b5f60208284031215610989575f5ffd5b81356001600160a01b038116811461099f575f5ffd5b9392505050565b634e487b7160e01b5f52601160045260245ffd5b818103818111156109cd576109cd6109a6565b92915050565b80820281158282048414176109cd576109cd6109a6565b5f82610a0457634e487b7160e01b5f52601260045260245ffd5b500490565b6001600160801b0381811683821601908111156109cd576109cd6109a656fea164736f6c634300081e000a","linkReferences":{}},"methodIdentifiers":{"availableToMint(bytes32)":"5cbda87f","configureSchedule(bytes32,uint64,uint64,uint128,uint128,bool)":"c2d152e3","jitVault()":"8ca04f6c","launchToken()":"a28a4d86","owner()":"8da5cb5b","renounceOwnership()":"715018a6","schedules(bytes32)":"d1e16bfa","streamToVault(bytes32)":"65607d3e","transferOwnership(address)":"f2fde38b"},"id":90}