{"abi":[{"type":"constructor","inputs":[{"name":"_poolManager","type":"address","internalType":"contract IPoolManager"},{"name":"_launchController","type":"address","internalType":"contract ILaunchController"},{"name":"_jitVault","type":"address","internalType":"contract IJITLiquidityVault"},{"name":"_issuanceModule","type":"address","internalType":"contract IssuanceModule"},{"name":"initialOwner","type":"address","internalType":"address"}],"stateMutability":"nonpayable"},{"type":"function","name":"afterAddLiquidity","inputs":[{"name":"sender","type":"address","internalType":"address"},{"name":"key","type":"tuple","internalType":"struct PoolKey","components":[{"name":"currency0","type":"address","internalType":"Currency"},{"name":"currency1","type":"address","internalType":"Currency"},{"name":"fee","type":"uint24","internalType":"uint24"},{"name":"tickSpacing","type":"int24","internalType":"int24"},{"name":"hooks","type":"address","internalType":"contract IHooks"}]},{"name":"params","type":"tuple","internalType":"struct ModifyLiquidityParams","components":[{"name":"tickLower","type":"int24","internalType":"int24"},{"name":"tickUpper","type":"int24","internalType":"int24"},{"name":"liquidityDelta","type":"int256","internalType":"int256"},{"name":"salt","type":"bytes32","internalType":"bytes32"}]},{"name":"delta0","type":"int256","internalType":"BalanceDelta"},{"name":"delta1","type":"int256","internalType":"BalanceDelta"},{"name":"hookData","type":"bytes","internalType":"bytes"}],"outputs":[{"name":"","type":"bytes4","internalType":"bytes4"},{"name":"","type":"int256","internalType":"BalanceDelta"}],"stateMutability":"nonpayable"},{"type":"function","name":"afterDonate","inputs":[{"name":"sender","type":"address","internalType":"address"},{"name":"key","type":"tuple","internalType":"struct PoolKey","components":[{"name":"currency0","type":"address","internalType":"Currency"},{"name":"currency1","type":"address","internalType":"Currency"},{"name":"fee","type":"uint24","internalType":"uint24"},{"name":"tickSpacing","type":"int24","internalType":"int24"},{"name":"hooks","type":"address","internalType":"contract IHooks"}]},{"name":"amount0","type":"uint256","internalType":"uint256"},{"name":"amount1","type":"uint256","internalType":"uint256"},{"name":"hookData","type":"bytes","internalType":"bytes"}],"outputs":[{"name":"","type":"bytes4","internalType":"bytes4"}],"stateMutability":"nonpayable"},{"type":"function","name":"afterInitialize","inputs":[{"name":"sender","type":"address","internalType":"address"},{"name":"key","type":"tuple","internalType":"struct PoolKey","components":[{"name":"currency0","type":"address","internalType":"Currency"},{"name":"currency1","type":"address","internalType":"Currency"},{"name":"fee","type":"uint24","internalType":"uint24"},{"name":"tickSpacing","type":"int24","internalType":"int24"},{"name":"hooks","type":"address","internalType":"contract IHooks"}]},{"name":"sqrtPriceX96","type":"uint160","internalType":"uint160"},{"name":"tick","type":"int24","internalType":"int24"}],"outputs":[{"name":"","type":"bytes4","internalType":"bytes4"}],"stateMutability":"nonpayable"},{"type":"function","name":"afterRemoveLiquidity","inputs":[{"name":"sender","type":"address","internalType":"address"},{"name":"key","type":"tuple","internalType":"struct PoolKey","components":[{"name":"currency0","type":"address","internalType":"Currency"},{"name":"currency1","type":"address","internalType":"Currency"},{"name":"fee","type":"uint24","internalType":"uint24"},{"name":"tickSpacing","type":"int24","internalType":"int24"},{"name":"hooks","type":"address","internalType":"contract IHooks"}]},{"name":"params","type":"tuple","internalType":"struct ModifyLiquidityParams","components":[{"name":"tickLower","type":"int24","internalType":"int24"},{"name":"tickUpper","type":"int24","internalType":"int24"},{"name":"liquidityDelta","type":"int256","internalType":"int256"},{"name":"salt","type":"bytes32","internalType":"bytes32"}]},{"name":"delta0","type":"int256","internalType":"BalanceDelta"},{"name":"delta1","type":"int256","internalType":"BalanceDelta"},{"name":"hookData","type":"bytes","internalType":"bytes"}],"outputs":[{"name":"","type":"bytes4","internalType":"bytes4"},{"name":"","type":"int256","internalType":"BalanceDelta"}],"stateMutability":"nonpayable"},{"type":"function","name":"afterSwap","inputs":[{"name":"sender","type":"address","internalType":"address"},{"name":"key","type":"tuple","internalType":"struct PoolKey","components":[{"name":"currency0","type":"address","internalType":"Currency"},{"name":"currency1","type":"address","internalType":"Currency"},{"name":"fee","type":"uint24","internalType":"uint24"},{"name":"tickSpacing","type":"int24","internalType":"int24"},{"name":"hooks","type":"address","internalType":"contract IHooks"}]},{"name":"params","type":"tuple","internalType":"struct SwapParams","components":[{"name":"zeroForOne","type":"bool","internalType":"bool"},{"name":"amountSpecified","type":"int256","internalType":"int256"},{"name":"sqrtPriceLimitX96","type":"uint160","internalType":"uint160"}]},{"name":"delta","type":"int256","internalType":"BalanceDelta"},{"name":"hookData","type":"bytes","internalType":"bytes"}],"outputs":[{"name":"","type":"bytes4","internalType":"bytes4"},{"name":"","type":"int128","internalType":"int128"}],"stateMutability":"nonpayable"},{"type":"function","name":"beforeAddLiquidity","inputs":[{"name":"sender","type":"address","internalType":"address"},{"name":"key","type":"tuple","internalType":"struct PoolKey","components":[{"name":"currency0","type":"address","internalType":"Currency"},{"name":"currency1","type":"address","internalType":"Currency"},{"name":"fee","type":"uint24","internalType":"uint24"},{"name":"tickSpacing","type":"int24","internalType":"int24"},{"name":"hooks","type":"address","internalType":"contract IHooks"}]},{"name":"params","type":"tuple","internalType":"struct ModifyLiquidityParams","components":[{"name":"tickLower","type":"int24","internalType":"int24"},{"name":"tickUpper","type":"int24","internalType":"int24"},{"name":"liquidityDelta","type":"int256","internalType":"int256"},{"name":"salt","type":"bytes32","internalType":"bytes32"}]},{"name":"hookData","type":"bytes","internalType":"bytes"}],"outputs":[{"name":"","type":"bytes4","internalType":"bytes4"}],"stateMutability":"nonpayable"},{"type":"function","name":"beforeDonate","inputs":[{"name":"sender","type":"address","internalType":"address"},{"name":"key","type":"tuple","internalType":"struct PoolKey","components":[{"name":"currency0","type":"address","internalType":"Currency"},{"name":"currency1","type":"address","internalType":"Currency"},{"name":"fee","type":"uint24","internalType":"uint24"},{"name":"tickSpacing","type":"int24","internalType":"int24"},{"name":"hooks","type":"address","internalType":"contract IHooks"}]},{"name":"amount0","type":"uint256","internalType":"uint256"},{"name":"amount1","type":"uint256","internalType":"uint256"},{"name":"hookData","type":"bytes","internalType":"bytes"}],"outputs":[{"name":"","type":"bytes4","internalType":"bytes4"}],"stateMutability":"nonpayable"},{"type":"function","name":"beforeInitialize","inputs":[{"name":"sender","type":"address","internalType":"address"},{"name":"key","type":"tuple","internalType":"struct PoolKey","components":[{"name":"currency0","type":"address","internalType":"Currency"},{"name":"currency1","type":"address","internalType":"Currency"},{"name":"fee","type":"uint24","internalType":"uint24"},{"name":"tickSpacing","type":"int24","internalType":"int24"},{"name":"hooks","type":"address","internalType":"contract IHooks"}]},{"name":"sqrtPriceX96","type":"uint160","internalType":"uint160"}],"outputs":[{"name":"","type":"bytes4","internalType":"bytes4"}],"stateMutability":"nonpayable"},{"type":"function","name":"beforeRemoveLiquidity","inputs":[{"name":"sender","type":"address","internalType":"address"},{"name":"key","type":"tuple","internalType":"struct PoolKey","components":[{"name":"currency0","type":"address","internalType":"Currency"},{"name":"currency1","type":"address","internalType":"Currency"},{"name":"fee","type":"uint24","internalType":"uint24"},{"name":"tickSpacing","type":"int24","internalType":"int24"},{"name":"hooks","type":"address","internalType":"contract IHooks"}]},{"name":"params","type":"tuple","internalType":"struct ModifyLiquidityParams","components":[{"name":"tickLower","type":"int24","internalType":"int24"},{"name":"tickUpper","type":"int24","internalType":"int24"},{"name":"liquidityDelta","type":"int256","internalType":"int256"},{"name":"salt","type":"bytes32","internalType":"bytes32"}]},{"name":"hookData","type":"bytes","internalType":"bytes"}],"outputs":[{"name":"","type":"bytes4","internalType":"bytes4"}],"stateMutability":"nonpayable"},{"type":"function","name":"beforeSwap","inputs":[{"name":"sender","type":"address","internalType":"address"},{"name":"key","type":"tuple","internalType":"struct PoolKey","components":[{"name":"currency0","type":"address","internalType":"Currency"},{"name":"currency1","type":"address","internalType":"Currency"},{"name":"fee","type":"uint24","internalType":"uint24"},{"name":"tickSpacing","type":"int24","internalType":"int24"},{"name":"hooks","type":"address","internalType":"contract IHooks"}]},{"name":"params","type":"tuple","internalType":"struct SwapParams","components":[{"name":"zeroForOne","type":"bool","internalType":"bool"},{"name":"amountSpecified","type":"int256","internalType":"int256"},{"name":"sqrtPriceLimitX96","type":"uint160","internalType":"uint160"}]},{"name":"hookData","type":"bytes","internalType":"bytes"}],"outputs":[{"name":"","type":"bytes4","internalType":"bytes4"},{"name":"","type":"int256","internalType":"BeforeSwapDelta"},{"name":"","type":"uint24","internalType":"uint24"}],"stateMutability":"nonpayable"},{"type":"function","name":"getHookPermissions","inputs":[],"outputs":[{"name":"","type":"tuple","internalType":"struct Hooks.Permissions","components":[{"name":"beforeInitialize","type":"bool","internalType":"bool"},{"name":"afterInitialize","type":"bool","internalType":"bool"},{"name":"beforeAddLiquidity","type":"bool","internalType":"bool"},{"name":"afterAddLiquidity","type":"bool","internalType":"bool"},{"name":"beforeRemoveLiquidity","type":"bool","internalType":"bool"},{"name":"afterRemoveLiquidity","type":"bool","internalType":"bool"},{"name":"beforeSwap","type":"bool","internalType":"bool"},{"name":"afterSwap","type":"bool","internalType":"bool"},{"name":"beforeDonate","type":"bool","internalType":"bool"},{"name":"afterDonate","type":"bool","internalType":"bool"},{"name":"beforeSwapReturnDelta","type":"bool","internalType":"bool"},{"name":"afterSwapReturnDelta","type":"bool","internalType":"bool"},{"name":"afterAddLiquidityReturnDelta","type":"bool","internalType":"bool"},{"name":"afterRemoveLiquidityReturnDelta","type":"bool","internalType":"bool"}]}],"stateMutability":"pure"},{"type":"function","name":"issuanceModule","inputs":[],"outputs":[{"name":"","type":"address","internalType":"contract IssuanceModule"}],"stateMutability":"view"},{"type":"function","name":"jitVault","inputs":[],"outputs":[{"name":"","type":"address","internalType":"contract IJITLiquidityVault"}],"stateMutability":"view"},{"type":"function","name":"launchController","inputs":[],"outputs":[{"name":"","type":"address","internalType":"contract ILaunchController"}],"stateMutability":"view"},{"type":"function","name":"owner","inputs":[],"outputs":[{"name":"","type":"address","internalType":"address"}],"stateMutability":"view"},{"type":"function","name":"poolManager","inputs":[],"outputs":[{"name":"","type":"address","internalType":"contract IPoolManager"}],"stateMutability":"view"},{"type":"function","name":"registeredPools","inputs":[{"name":"","type":"bytes32","internalType":"PoolId"}],"outputs":[{"name":"","type":"bool","internalType":"bool"}],"stateMutability":"view"},{"type":"function","name":"renounceOwnership","inputs":[],"outputs":[],"stateMutability":"nonpayable"},{"type":"function","name":"setIssuanceModule","inputs":[{"name":"module","type":"address","internalType":"contract IssuanceModule"}],"outputs":[],"stateMutability":"nonpayable"},{"type":"function","name":"setPoolRegistration","inputs":[{"name":"key","type":"tuple","internalType":"struct PoolKey","components":[{"name":"currency0","type":"address","internalType":"Currency"},{"name":"currency1","type":"address","internalType":"Currency"},{"name":"fee","type":"uint24","internalType":"uint24"},{"name":"tickSpacing","type":"int24","internalType":"int24"},{"name":"hooks","type":"address","internalType":"contract IHooks"}]},{"name":"enabled","type":"bool","internalType":"bool"}],"outputs":[],"stateMutability":"nonpayable"},{"type":"function","name":"transferOwnership","inputs":[{"name":"newOwner","type":"address","internalType":"address"}],"outputs":[],"stateMutability":"nonpayable"},{"type":"event","name":"GuardrailCheck","inputs":[{"name":"poolId","type":"bytes32","indexed":true,"internalType":"PoolId"},{"name":"sender","type":"address","indexed":true,"internalType":"address"},{"name":"phase","type":"uint8","indexed":false,"internalType":"enum LaunchPhase"},{"name":"amountIn","type":"uint256","indexed":false,"internalType":"uint256"},{"name":"impactBps","type":"uint256","indexed":false,"internalType":"uint256"},{"name":"maxAmountIn","type":"uint256","indexed":false,"internalType":"uint256"},{"name":"maxImpactBps","type":"uint256","indexed":false,"internalType":"uint256"}],"anonymous":false},{"type":"event","name":"IssuanceModuleSet","inputs":[{"name":"module","type":"address","indexed":true,"internalType":"address"}],"anonymous":false},{"type":"event","name":"OwnershipTransferred","inputs":[{"name":"previousOwner","type":"address","indexed":true,"internalType":"address"},{"name":"newOwner","type":"address","indexed":true,"internalType":"address"}],"anonymous":false},{"type":"event","name":"PoolRegistrationSet","inputs":[{"name":"poolId","type":"bytes32","indexed":true,"internalType":"PoolId"},{"name":"enabled","type":"bool","indexed":false,"internalType":"bool"}],"anonymous":false},{"type":"error","name":"HookNotImplemented","inputs":[]},{"type":"error","name":"InvalidPool","inputs":[]},{"type":"error","name":"NotPoolManager","inputs":[]},{"type":"error","name":"NotSelf","inputs":[]},{"type":"error","name":"OwnableInvalidOwner","inputs":[{"name":"owner","type":"address","internalType":"address"}]},{"type":"error","name":"OwnableUnauthorizedAccount","inputs":[{"name":"account","type":"address","internalType":"address"}]},{"type":"error","name":"PoolNotRegistered","inputs":[{"name":"poolId","type":"bytes32","internalType":"PoolId"}]}],"bytecode":{"object":"0x60e060405234801561000f575f5ffd5b50604051611cca380380611cca83398101604081905261002e91610369565b6001600160a01b0385166080528085610046306100ae565b506001600160a01b03811661007457604051631e4fbdf760e01b81525f600482015260240160405180910390fd5b61007d816101a1565b50506001600160a01b0392831660a05290821660c052600180546001600160a01b03191691909216179055506103da565b61019e81610199604080516101c0810182525f80825260208201819052918101829052606081018290526080810182905260a0810182905260c0810182905260e08101829052610100810182905261012081018290526101408101829052610160810182905261018081018290526101a081019190915250604080516101c0810182525f80825260208201819052918101829052606081018290526080810182905260a08101829052600160c0820181905260e0820152610100810182905261012081018290526101408101829052610160810182905261018081018290526101a081019190915290565b6101f0565b50565b5f80546001600160a01b038381166001600160a01b0319831681178455604051919092169283917f8be0079c531659141344cd1fd0a4f28419497f9722a3daafe3b4186f6b6457e09190a35050565b80511515612000831615151415806102145750602081015115156110008316151514155b8061022b5750604081015115156108008316151514155b806102425750606081015115156104008316151514155b806102595750608081015115156102008316151514155b80610270575060a081015115156101008316151514155b80610286575060c0810151151560808316151514155b8061029c575060e0810151151560408316151514155b806102b35750610100810151151560208316151514155b806102ca5750610120810151151560108316151514155b806102e15750610140810151151560088316151514155b806102f85750610160810151151560048316151514155b8061030f5750610180810151151560028316151514155b8061032657506101a0810151151560018316151514155b1561033c5761033c630732d7b560e51b83610340565b5050565b815f526001600160a01b03811660045260245ffd5b6001600160a01b038116811461019e575f5ffd5b5f5f5f5f5f60a0868803121561037d575f5ffd5b855161038881610355565b602087015190955061039981610355565b60408701519094506103aa81610355565b60608701519093506103bb81610355565b60808701519092506103cc81610355565b809150509295509295909350565b60805160a05160c0516118646104665f395f818161025f01528181610b5f0152610ca001525f818161013b015281816108fe015281816109f00152610c0b01525f81816103e60152818161046c015281816104cf01528181610538015281816105a101528181610690015281816106f0015281816107a401528181610af10152610e0b01526118645ff3fe608060405234801561000f575f5ffd5b5060043610610132575f3560e01c80638da5cb5b116100b4578063c4e833ce11610079578063c4e833ce146102ed578063dc4c90d3146103e1578063dc98354e14610408578063e1b4af69146102c7578063ea509a641461041b578063f2fde38b1461044d575f5ffd5b80638da5cb5b146102815780639f063efc146101e4578063b47b2fb114610291578063b6a8b0fa146102c7578063c1830945146102da575f5ffd5b80636fe7e6eb116100fa5780636fe7e6eb14610217578063715018a61461022a57806372a8b9d7146102345780638b4092d4146102475780638ca04f6c1461025a575f5ffd5b806314b208861461013657806321d0ee701461017a578063259982e51461017a578063575e24b4146101a65780636c2bbe7e146101e4575b5f5ffd5b61015d7f000000000000000000000000000000000000000000000000000000000000000081565b6040516001600160a01b0390911681526020015b60405180910390f35b61018d61018836600461103a565b610460565b6040516001600160e01b03199091168152602001610171565b6101b96101b43660046110c1565b6104c1565b604080516001600160e01b03199094168452602084019290925262ffffff1690820152606001610171565b6101f76101f236600461111b565b61052b565b604080516001600160e01b03199093168352602083019190915201610171565b61018d6102253660046111b4565b610595565b6102326105f4565b005b60015461015d906001600160a01b031681565b61023261025536600461121a565b610607565b61015d7f000000000000000000000000000000000000000000000000000000000000000081565b5f546001600160a01b031661015d565b6102a461029f366004611250565b610683565b604080516001600160e01b03199093168352600f9190910b602083015201610171565b61018d6102d53660046112d1565b6106e4565b6102326102e836600461132b565b610747565b6103d4604080516101c0810182525f80825260208201819052918101829052606081018290526080810182905260a0810182905260c0810182905260e08101829052610100810182905261012081018290526101408101829052610160810182905261018081018290526101a081019190915250604080516101c0810182525f80825260208201819052918101829052606081018290526080810182905260a08101829052600160c0820181905260e0820152610100810182905261012081018290526101408101829052610160810182905261018081018290526101a081019190915290565b604051610171919061134d565b61015d7f000000000000000000000000000000000000000000000000000000000000000081565b61018d61041636600461146e565b610798565b61043d6104293660046114b5565b60026020525f908152604090205460ff1681565b6040519015158152602001610171565b61023261045b36600461132b565b6107f5565b5f336001600160a01b037f000000000000000000000000000000000000000000000000000000000000000016146104aa5760405163570c108560e11b815260040160405180910390fd5b6104b78686868686610837565b9695505050505050565b5f8080336001600160a01b037f0000000000000000000000000000000000000000000000000000000000000000161461050d5760405163570c108560e11b815260040160405180910390fd5b61051a8888888888610851565b925092509250955095509592505050565b5f80336001600160a01b037f000000000000000000000000000000000000000000000000000000000000000016146105765760405163570c108560e11b815260040160405180910390fd5b61058589898989898989610d30565b9150915097509795505050505050565b5f336001600160a01b037f000000000000000000000000000000000000000000000000000000000000000016146105df5760405163570c108560e11b815260040160405180910390fd5b6105eb85858585610837565b95945050505050565b6105fc610d4b565b6106055f610d77565b565b61060f610d4b565b5f61062961062236859003850185611502565b60a0902090565b5f81815260026020908152604091829020805460ff1916861515908117909155915191825291925082917fdb5b750276e61994942061d3a3bba21a404ee00691fa7063bf6fae406cc62610910160405180910390a2505050565b5f80336001600160a01b037f000000000000000000000000000000000000000000000000000000000000000016146106ce5760405163570c108560e11b815260040160405180910390fd5b5063b47b2fb160e01b975f975095505050505050565b5f336001600160a01b037f0000000000000000000000000000000000000000000000000000000000000000161461072e5760405163570c108560e11b815260040160405180910390fd5b61073c878787878787610837565b979650505050505050565b61074f610d4b565b600180546001600160a01b0319166001600160a01b0383169081179091556040517f16a623dc176a0f674abb1f4bbd8dd0c68191dd266622edd47a9728eacddc74a1905f90a250565b5f336001600160a01b037f000000000000000000000000000000000000000000000000000000000000000016146107e25760405163570c108560e11b815260040160405180910390fd5b6107ed848484610837565b949350505050565b6107fd610d4b565b6001600160a01b03811661082b57604051631e4fbdf760e01b81525f60048201526024015b60405180910390fd5b61083481610d77565b50565b5f604051630a85dc2960e01b815260040160405180910390fd5b5f808080610867610622368a90038a018a611502565b5f8181526002602052604090205490915060ff1661089b57604051631f43f51960e11b815260048101829052602401610822565b5f6108a98860200135610dc6565b90505f6108c5836108c060608c0160408d0161132b565b610de5565b6040516312fc173760e21b8152600481018590526001600160a01b038d8116602483015260448201859052606482018390529192505f917f00000000000000000000000000000000000000000000000000000000000000001690634bf05cdc90608401610120604051808303815f875af1158015610945573d5f5f3e3d5ffd5b505050506040513d601f19601f8201168201806040525081019061096991906115f2565b90508b6001600160a01b0316847f8a2aada980fd130ab9983cba87ddda45955dd701ce544eea6d5af3101d9fc5df835f01518686866020015187604001516040516109b89594939291906116bd565b60405180910390a36001815160028111156109d5576109d56116a9565b03610bdb576040516366388d8160e11b8152600481018590527f00000000000000000000000000000000000000000000000000000000000000006001600160a01b03169063cc711b02906024016020604051808303815f875af1158015610a3e573d5f5f3e3d5ffd5b505050506040513d601f19601f82011682018060405250810190610a62919061170b565b15610bd6576001546001600160a01b03168015610ae3576040516332b03e9f60e11b8152600481018690526001600160a01b038216906365607d3e906024016020604051808303815f875af1158015610abd573d5f5f3e3d5ffd5b505050506040513d601f19601f82011682018060405250810190610ae19190611726565b505b5f610b176001600160a01b037f00000000000000000000000000000000000000000000000000000000000000001687610ecd565b505060c085015160e0860151604051633736dc1360e21b8152600481018b9052600284900b602482015261ffff90921660448301526001600160801b031660648201529092507f00000000000000000000000000000000000000000000000000000000000000006001600160a01b0316915063dcdb704c906084016080604051808303815f875af1158015610bae573d5f5f3e3d5ffd5b505050506040513d601f19601f82011682018060405250810190610bd2919061173d565b5050505b610d14565b600281516002811115610bf057610bf06116a9565b03610d14576040516366388d8160e11b8152600481018590527f00000000000000000000000000000000000000000000000000000000000000006001600160a01b03169063cc711b02906024016020604051808303815f875af1158015610c59573d5f5f3e3d5ffd5b505050506040513d601f19601f82011682018060405250810190610c7d919061170b565b15610d14576040516342a8a10f60e01b8152600481018590526109c460248201527f00000000000000000000000000000000000000000000000000000000000000006001600160a01b0316906342a8a10f9060440160408051808303815f875af1158015610ced573d5f5f3e3d5ffd5b505050506040513d601f19601f82011682018060405250810190610d1191906117be565b50505b506315d7892d60e21b9b5f9b508b9a5098505050505050505050565b5f5f604051630a85dc2960e01b815260040160405180910390fd5b5f546001600160a01b031633146106055760405163118cdaa760e01b8152336004820152602401610822565b5f80546001600160a01b038381166001600160a01b0319831681178455604051919092169283917f8be0079c531659141344cd1fd0a4f28419497f9722a3daafe3b4186f6b6457e09190a35050565b5f5f821215610ddd57610dd8826117f4565b610ddf565b815b92915050565b5f816001600160a01b03165f03610dfd57505f610ddf565b5f610e316001600160a01b037f00000000000000000000000000000000000000000000000000000000000000001685610ecd565b5050509050806001600160a01b03165f03610e4f575f915050610ddf565b5f836001600160a01b0316826001600160a01b031611610e6f5783610e71565b815b6001600160a01b031690505f846001600160a01b0316836001600160a01b031611610e9c5782610e9e565b845b6001600160a01b0390811691508316610eb7828461180e565b610ec390612710611821565b6104b79190611838565b5f5f5f5f5f610edb86610f7f565b604051631e2eaeaf60e01b8152600481018290529091505f906001600160a01b03891690631e2eaeaf90602401602060405180830381865afa158015610f23573d5f5f3e3d5ffd5b505050506040513d601f19601f82011682018060405250810190610f479190611726565b90506001600160a01b03811695508060a01c60020b945062ffffff8160b81c16935062ffffff8160d01c169250505092959194509250565b6040515f90610f9e908390600690602001918252602082015260400190565b604051602081830303815290604052805190602001209050919050565b6001600160a01b0381168114610834575f5ffd5b5f60a08284031215610fdf575f5ffd5b50919050565b5f60808284031215610fdf575f5ffd5b5f5f83601f840112611005575f5ffd5b50813567ffffffffffffffff81111561101c575f5ffd5b602083019150836020828501011115611033575f5ffd5b9250929050565b5f5f5f5f5f610160868803121561104f575f5ffd5b853561105a81610fbb565b94506110698760208801610fcf565b93506110788760c08801610fe5565b925061014086013567ffffffffffffffff811115611094575f5ffd5b6110a088828901610ff5565b969995985093965092949392505050565b5f60608284031215610fdf575f5ffd5b5f5f5f5f5f61014086880312156110d6575f5ffd5b85356110e181610fbb565b94506110f08760208801610fcf565b93506110ff8760c088016110b1565b925061012086013567ffffffffffffffff811115611094575f5ffd5b5f5f5f5f5f5f5f6101a0888a031215611132575f5ffd5b873561113d81610fbb565b965061114c8960208a01610fcf565b955061115b8960c08a01610fe5565b94506101408801359350610160880135925061018088013567ffffffffffffffff811115611187575f5ffd5b6111938a828b01610ff5565b989b979a50959850939692959293505050565b8060020b8114610834575f5ffd5b5f5f5f5f61010085870312156111c8575f5ffd5b84356111d381610fbb565b93506111e28660208701610fcf565b925060c08501356111f281610fbb565b915060e0850135611202816111a6565b939692955090935050565b8015158114610834575f5ffd5b5f5f60c0838503121561122b575f5ffd5b6112358484610fcf565b915060a08301356112458161120d565b809150509250929050565b5f5f5f5f5f5f6101608789031215611266575f5ffd5b863561127181610fbb565b95506112808860208901610fcf565b945061128f8860c089016110b1565b9350610120870135925061014087013567ffffffffffffffff8111156112b3575f5ffd5b6112bf89828a01610ff5565b979a9699509497509295939492505050565b5f5f5f5f5f5f61012087890312156112e7575f5ffd5b86356112f281610fbb565b95506113018860208901610fcf565b945060c0870135935060e0870135925061010087013567ffffffffffffffff8111156112b3575f5ffd5b5f6020828403121561133b575f5ffd5b813561134681610fbb565b9392505050565b8151151581526101c08101602083015161136b602084018215159052565b50604083015161137f604084018215159052565b506060830151611393606084018215159052565b5060808301516113a7608084018215159052565b5060a08301516113bb60a084018215159052565b5060c08301516113cf60c084018215159052565b5060e08301516113e360e084018215159052565b506101008301516113f961010084018215159052565b5061012083015161140f61012084018215159052565b5061014083015161142561014084018215159052565b5061016083015161143b61016084018215159052565b5061018083015161145161018084018215159052565b506101a08301516114676101a084018215159052565b5092915050565b5f5f5f60e08486031215611480575f5ffd5b833561148b81610fbb565b925061149a8560208601610fcf565b915060c08401356114aa81610fbb565b809150509250925092565b5f602082840312156114c5575f5ffd5b5035919050565b604051610120810167ffffffffffffffff811182821017156114fc57634e487b7160e01b5f52604160045260245ffd5b60405290565b5f60a0828403128015611513575f5ffd5b5060405160a0810167ffffffffffffffff8111828210171561154357634e487b7160e01b5f52604160045260245ffd5b604052823561155181610fbb565b8152602083013561156181610fbb565b6020820152604083013562ffffff8116811461157b575f5ffd5b6040820152606083013561158e816111a6565b606082015260808301356115a181610fbb565b60808201529392505050565b8051600381106115bb575f5ffd5b919050565b80516001600160801b03811681146115bb575f5ffd5b805161ffff811681146115bb575f5ffd5b80516115bb8161120d565b5f610120828403128015611604575f5ffd5b5061160d6114cc565b611616836115ad565b8152611624602084016115c0565b6020820152611635604084016115d6565b6040820152611646606084016115d6565b6060820152611657608084016115d6565b608082015261166860a084016115d6565b60a082015261167960c084016115d6565b60c082015261168a60e084016115c0565b60e082015261169c61010084016115e7565b6101008201529392505050565b634e487b7160e01b5f52602160045260245ffd5b60a08101600387106116dd57634e487b7160e01b5f52602160045260245ffd5b958152602081019490945260408401929092526001600160801b0316606083015261ffff1660809091015290565b5f6020828403121561171b575f5ffd5b81516113468161120d565b5f60208284031215611736575f5ffd5b5051919050565b5f608082840312801561174e575f5ffd5b506040516080810167ffffffffffffffff8111828210171561177e57634e487b7160e01b5f52604160045260245ffd5b604052825161178c816111a6565b8152602083015161179c816111a6565b6020820152604083810151908201526060928301519281019290925250919050565b5f5f604083850312156117cf575f5ffd5b505080516020909101519092909150565b634e487b7160e01b5f52601160045260245ffd5b5f600160ff1b8201611808576118086117e0565b505f0390565b81810381811115610ddf57610ddf6117e0565b8082028115828204841417610ddf57610ddf6117e0565b5f8261185257634e487b7160e01b5f52601260045260245ffd5b50049056fea164736f6c634300081e000a","linkReferences":{}},"methodIdentifiers":{"afterAddLiquidity(address,(address,address,uint24,int24,address),(int24,int24,int256,bytes32),int256,int256,bytes)":"9f063efc","afterDonate(address,(address,address,uint24,int24,address),uint256,uint256,bytes)":"e1b4af69","afterInitialize(address,(address,address,uint24,int24,address),uint160,int24)":"6fe7e6eb","afterRemoveLiquidity(address,(address,address,uint24,int24,address),(int24,int24,int256,bytes32),int256,int256,bytes)":"6c2bbe7e","afterSwap(address,(address,address,uint24,int24,address),(bool,int256,uint160),int256,bytes)":"b47b2fb1","beforeAddLiquidity(address,(address,address,uint24,int24,address),(int24,int24,int256,bytes32),bytes)":"259982e5","beforeDonate(address,(address,address,uint24,int24,address),uint256,uint256,bytes)":"b6a8b0fa","beforeInitialize(address,(address,address,uint24,int24,address),uint160)":"dc98354e","beforeRemoveLiquidity(address,(address,address,uint24,int24,address),(int24,int24,int256,bytes32),bytes)":"21d0ee70","beforeSwap(address,(address,address,uint24,int24,address),(bool,int256,uint160),bytes)":"575e24b4","getHookPermissions()":"c4e833ce","issuanceModule()":"72a8b9d7","jitVault()":"8ca04f6c","launchController()":"14b20886","owner()":"8da5cb5b","poolManager()":"dc4c90d3","registeredPools(bytes32)":"ea509a64","renounceOwnership()":"715018a6","setIssuanceModule(address)":"c1830945","setPoolRegistration((address,address,uint24,int24,address),bool)":"8b4092d4","transferOwnership(address)":"f2fde38b"},"id":90}