{"abi":[{"type":"constructor","inputs":[{"name":"_token0","type":"address","internalType":"contract IERC20"},{"name":"_quoteVault","type":"address","internalType":"contract IQuoteInventoryVault"},{"name":"_launchController","type":"address","internalType":"contract ILaunchController"},{"name":"initialOwner","type":"address","internalType":"address"}],"stateMutability":"nonpayable"},{"type":"function","name":"creditIssuedToken0","inputs":[{"name":"poolId","type":"bytes32","internalType":"PoolId"},{"name":"amount","type":"uint256","internalType":"uint256"}],"outputs":[],"stateMutability":"nonpayable"},{"type":"function","name":"depositToken0","inputs":[{"name":"poolId","type":"bytes32","internalType":"PoolId"},{"name":"amount","type":"uint256","internalType":"uint256"}],"outputs":[],"stateMutability":"nonpayable"},{"type":"function","name":"executeJITAdd","inputs":[{"name":"poolId","type":"bytes32","internalType":"PoolId"},{"name":"tick","type":"int24","internalType":"int24"},{"name":"bandWidth","type":"uint16","internalType":"uint16"},{"name":"maxUsage","type":"uint128","internalType":"uint128"}],"outputs":[{"name":"quote","type":"tuple","internalType":"struct IJITLiquidityVault.JITQuote","components":[{"name":"tickLower","type":"int24","internalType":"int24"},{"name":"tickUpper","type":"int24","internalType":"int24"},{"name":"token0ToUse","type":"uint256","internalType":"uint256"},{"name":"quoteToUse","type":"uint256","internalType":"uint256"}]}],"stateMutability":"nonpayable"},{"type":"function","name":"executeJITRemove","inputs":[{"name":"poolId","type":"bytes32","internalType":"PoolId"},{"name":"releaseBps","type":"uint16","internalType":"uint16"}],"outputs":[{"name":"token0Released","type":"uint256","internalType":"uint256"},{"name":"quoteReleased","type":"uint256","internalType":"uint256"}],"stateMutability":"nonpayable"},{"type":"function","name":"inventoryState","inputs":[{"name":"poolId","type":"bytes32","internalType":"PoolId"}],"outputs":[{"name":"freeToken0","type":"uint256","internalType":"uint256"},{"name":"reservedToken0","type":"uint256","internalType":"uint256"},{"name":"reservedQuote","type":"uint256","internalType":"uint256"},{"name":"activeLiquidityUnits","type":"uint128","internalType":"uint128"},{"name":"lastCenterTick","type":"int24","internalType":"int24"},{"name":"lastJitBlock","type":"uint64","internalType":"uint64"}],"stateMutability":"view"},{"type":"function","name":"issuanceModules","inputs":[{"name":"","type":"address","internalType":"address"}],"outputs":[{"name":"","type":"bool","internalType":"bool"}],"stateMutability":"view"},{"type":"function","name":"launchController","inputs":[],"outputs":[{"name":"","type":"address","internalType":"contract ILaunchController"}],"stateMutability":"view"},{"type":"function","name":"owner","inputs":[],"outputs":[{"name":"","type":"address","internalType":"address"}],"stateMutability":"view"},{"type":"function","name":"quoteAddLiquidityForTick","inputs":[{"name":"poolId","type":"bytes32","internalType":"PoolId"},{"name":"tick","type":"int24","internalType":"int24"},{"name":"bandWidth","type":"uint16","internalType":"uint16"},{"name":"maxUsage","type":"uint128","internalType":"uint128"}],"outputs":[{"name":"quote","type":"tuple","internalType":"struct IJITLiquidityVault.JITQuote","components":[{"name":"tickLower","type":"int24","internalType":"int24"},{"name":"tickUpper","type":"int24","internalType":"int24"},{"name":"token0ToUse","type":"uint256","internalType":"uint256"},{"name":"quoteToUse","type":"uint256","internalType":"uint256"}]}],"stateMutability":"view"},{"type":"function","name":"quoteVault","inputs":[],"outputs":[{"name":"","type":"address","internalType":"contract IQuoteInventoryVault"}],"stateMutability":"view"},{"type":"function","name":"renounceOwnership","inputs":[],"outputs":[],"stateMutability":"nonpayable"},{"type":"function","name":"setIssuanceModule","inputs":[{"name":"module","type":"address","internalType":"address"},{"name":"allowed","type":"bool","internalType":"bool"}],"outputs":[],"stateMutability":"nonpayable"},{"type":"function","name":"token0","inputs":[],"outputs":[{"name":"","type":"address","internalType":"contract IERC20"}],"stateMutability":"view"},{"type":"function","name":"transferOwnership","inputs":[{"name":"newOwner","type":"address","internalType":"address"}],"outputs":[],"stateMutability":"nonpayable"},{"type":"function","name":"withdrawToken0","inputs":[{"name":"poolId","type":"bytes32","internalType":"PoolId"},{"name":"recipient","type":"address","internalType":"address"},{"name":"amount","type":"uint256","internalType":"uint256"}],"outputs":[],"stateMutability":"nonpayable"},{"type":"event","name":"IssuanceCredited","inputs":[{"name":"poolId","type":"bytes32","indexed":true,"internalType":"PoolId"},{"name":"amount","type":"uint256","indexed":false,"internalType":"uint256"}],"anonymous":false},{"type":"event","name":"IssuanceModuleUpdated","inputs":[{"name":"module","type":"address","indexed":true,"internalType":"address"},{"name":"allowed","type":"bool","indexed":false,"internalType":"bool"}],"anonymous":false},{"type":"event","name":"JITAdded","inputs":[{"name":"poolId","type":"bytes32","indexed":true,"internalType":"PoolId"},{"name":"tickLower","type":"int24","indexed":true,"internalType":"int24"},{"name":"tickUpper","type":"int24","indexed":true,"internalType":"int24"},{"name":"token0Used","type":"uint256","indexed":false,"internalType":"uint256"},{"name":"quoteUsed","type":"uint256","indexed":false,"internalType":"uint256"},{"name":"activeLiquidityUnits","type":"uint128","indexed":false,"internalType":"uint128"}],"anonymous":false},{"type":"event","name":"JITRemoved","inputs":[{"name":"poolId","type":"bytes32","indexed":true,"internalType":"PoolId"},{"name":"token0Released","type":"uint256","indexed":false,"internalType":"uint256"},{"name":"quoteReleased","type":"uint256","indexed":false,"internalType":"uint256"},{"name":"activeLiquidityUnits","type":"uint128","indexed":false,"internalType":"uint128"}],"anonymous":false},{"type":"event","name":"OwnershipTransferred","inputs":[{"name":"previousOwner","type":"address","indexed":true,"internalType":"address"},{"name":"newOwner","type":"address","indexed":true,"internalType":"address"}],"anonymous":false},{"type":"event","name":"Token0Deposited","inputs":[{"name":"poolId","type":"bytes32","indexed":true,"internalType":"PoolId"},{"name":"amount","type":"uint256","indexed":false,"internalType":"uint256"}],"anonymous":false},{"type":"event","name":"Token0Withdrawn","inputs":[{"name":"poolId","type":"bytes32","indexed":true,"internalType":"PoolId"},{"name":"recipient","type":"address","indexed":true,"internalType":"address"},{"name":"amount","type":"uint256","indexed":false,"internalType":"uint256"}],"anonymous":false},{"type":"error","name":"AddressEmptyCode","inputs":[{"name":"target","type":"address","internalType":"address"}]},{"type":"error","name":"AddressInsufficientBalance","inputs":[{"name":"account","type":"address","internalType":"address"}]},{"type":"error","name":"FailedInnerCall","inputs":[]},{"type":"error","name":"InsufficientFreeToken0","inputs":[{"name":"poolId","type":"bytes32","internalType":"PoolId"},{"name":"requested","type":"uint256","internalType":"uint256"},{"name":"available","type":"uint256","internalType":"uint256"}]},{"type":"error","name":"InvalidBandWidth","inputs":[]},{"type":"error","name":"InvalidBps","inputs":[]},{"type":"error","name":"OwnableInvalidOwner","inputs":[{"name":"owner","type":"address","internalType":"address"}]},{"type":"error","name":"OwnableUnauthorizedAccount","inputs":[{"name":"account","type":"address","internalType":"address"}]},{"type":"error","name":"ReentrancyGuardReentrantCall","inputs":[]},{"type":"error","name":"SafeERC20FailedOperation","inputs":[{"name":"token","type":"address","internalType":"address"}]},{"type":"error","name":"UnauthorizedHook","inputs":[{"name":"poolId","type":"bytes32","internalType":"PoolId"},{"name":"caller","type":"address","internalType":"address"}]},{"type":"error","name":"UnauthorizedIssuer","inputs":[{"name":"caller","type":"address","internalType":"address"}]}],"bytecode":{"object":"0x60e060405234801561000f575f5ffd5b506040516115f03803806115f083398101604081905261002e916100ee565b806001600160a01b03811661005c57604051631e4fbdf760e01b81525f600482015260240160405180910390fd5b61006581610088565b5050600180556001600160a01b0392831660805290821660a0521660c05261014a565b5f80546001600160a01b038381166001600160a01b0319831681178455604051919092169283917f8be0079c531659141344cd1fd0a4f28419497f9722a3daafe3b4186f6b6457e09190a35050565b6001600160a01b03811681146100eb575f5ffd5b50565b5f5f5f5f60808587031215610101575f5ffd5b845161010c816100d7565b602086015190945061011d816100d7565b604086015190935061012e816100d7565b606086015190925061013f816100d7565b939692955090935050565b60805160a05160c05161144c6101a45f395f818161013d015281816105500152610a7e01525f818161031c01528181610485015281816106d10152610bbc01525f818160f9015281816109490152610de7015261144c5ff3fe608060405234801561000f575f5ffd5b50600436106100f0575f3560e01c80637a37d79a11610093578063cd13782911610063578063cd1378291461033e578063dcdb704c14610351578063e2ab86e314610364578063f2fde38b14610377575f5ffd5b80637a37d79a146102c25780638da5cb5b146102f4578063a909257814610304578063aa8d399b14610317575f5ffd5b80632865e905116100ce5780632865e9051461017457806342a8a10f146101c457806365d770f7146101ec578063715018a6146102ba575f5ffd5b80630dfe1681146100f457806314b208861461013857806314f1d4f11461015f575b5f5ffd5b61011b7f000000000000000000000000000000000000000000000000000000000000000081565b6040516001600160a01b0390911681526020015b60405180910390f35b61011b7f000000000000000000000000000000000000000000000000000000000000000081565b61017261016d366004611187565b61038a565b005b6101876101823660046111d4565b6103f1565b60405161012f91905f608082019050825160020b8252602083015160020b6020830152604083015160408301526060830151606083015292915050565b6101d76101d2366004611233565b61054b565b6040805192835260208301919091520161012f565b6102776101fa36600461125d565b5f90815260026020818152604092839020835160c08101855281548082526001830154938201849052828501549582018690526003909201546001600160801b03811660608301819052600160801b820490950b60808301819052600160981b90910467ffffffffffffffff1660a0909201829052919592949392565b604080519687526020870195909552938501929092526001600160801b0316606084015260020b608083015267ffffffffffffffff1660a082015260c00161012f565b6101726108c6565b6102e46102d0366004611274565b60036020525f908152604090205460ff1681565b604051901515815260200161012f565b5f546001600160a01b031661011b565b61017261031236600461128f565b6108d9565b61011b7f000000000000000000000000000000000000000000000000000000000000000081565b61017261034c3660046112c4565b6109ba565b61018761035f3660046111d4565b610a3f565b6101726103723660046112c4565b610dd2565b610172610385366004611274565b610e63565b610392610ea0565b6001600160a01b0382165f81815260036020908152604091829020805460ff191685151590811790915591519182527ffebe6f74b6f31b3fea317da5efb2c302031508703b99bd4ab3a83c5751b5c88b91015b60405180910390a25050565b604080516080810182525f8082526020820181905291810182905260608101919091528261ffff165f0361043857604051633dfe4af560e21b815260040160405180910390fd5b5f85815260026020526040902061ffff841661045481876112f8565b60020b8352610463818761131d565b60020b60208401528154604051632595842d60e21b8152600481018990525f907f00000000000000000000000000000000000000000000000000000000000000006001600160a01b03169063965610b490602401602060405180830381865afa1580156104d2573d5f5f3e3d5ffd5b505050506040513d601f19601f820116820180604052508101906104f69190611342565b90505f61050c83886001600160801b0316610ecc565b90505f61052283896001600160801b0316610ecc565b90505f61052f8383610ecc565b60408901819052606089015250959a9950505050505050505050565b5f5f837f00000000000000000000000000000000000000000000000000000000000000006001600160a01b031663fd0c98a2826040518263ffffffff1660e01b815260040161059c91815260200190565b602060405180830381865afa1580156105b7573d5f5f3e3d5ffd5b505050506040513d601f19601f820116820180604052508101906105db9190611359565b6001600160a01b0316336001600160a01b03161461061a5760405163979eed0160e01b8152600481018290523360248201526044015b60405180910390fd5b610622610ee5565b6127108461ffff1611156106495760405163c6cc5d7f60e01b815260040160405180910390fd5b8361ffff165f0361065f575f5f925092506108b5565b5f8581526002602052604090206001810154612710906106849061ffff881690611374565b61068e919061138b565b93505f6127108661ffff1683600201546106a89190611374565b6106b2919061138b565b60405162a7162360e61b815260048101899052602481018290529091507f00000000000000000000000000000000000000000000000000000000000000006001600160a01b0316906329c588c0906044016020604051808303815f875af115801561071f573d5f5f3e3d5ffd5b505050506040513d601f19601f820116820180604052508101906107439190611342565b935084826001015f82825461075891906113aa565b90915550508154859083905f906107709084906113bd565b9091555050600282015484111561078957816002015493505b83826002015f82825461079c91906113aa565b909155505060038201545f90612710906107c49061ffff8a16906001600160801b0316611374565b6107ce919061138b565b60038401549091506001600160801b0390811690821611156107fa575060038201546001600160801b03165b6003830180548291905f906108199084906001600160801b03166113d0565b82546101009290920a6001600160801b0381810219909316918316021790915560038501805467ffffffffffffffff60981b198116600160981b4367ffffffffffffffff1602908117909255604080518b8152602081018b905291841692909316919091178183015290518a92507f4f5c2d00887d0161c4eaef5a7bafe851adfdb55c54b1db5e8a66aee75ae667ff9181900360600190a25050505b6108be60018055565b509250929050565b6108ce610ea0565b6108d75f610f0f565b565b6108e1610ea0565b5f8381526002602052604090208054821115610924578054604051631898da7960e31b815260048101869052602481018490526044810191909152606401610611565b81815f015f82825461093691906113aa565b9091555061097090506001600160a01b037f0000000000000000000000000000000000000000000000000000000000000000168484610f5e565b826001600160a01b0316847f4e7c78d2c3962b1240779fc3f2f38225da8b4b3dfc69a96fe8e5987079afe711846040516109ac91815260200190565b60405180910390a350505050565b335f9081526003602052604090205460ff166109eb57604051632eaf165960e11b8152336004820152602401610611565b5f8281526002602052604081208054839290610a089084906113bd565b909155505060405181815282907fc8e590e638fd13e977619630bab0a8216fe9d61ce8acd519ccd3f253d9323145906020016103e5565b604080516080810182525f8082526020820181905281830181905260608201529051637e864c5160e11b81526004810186905285906001600160a01b037f0000000000000000000000000000000000000000000000000000000000000000169063fd0c98a290602401602060405180830381865afa158015610ac3573d5f5f3e3d5ffd5b505050506040513d601f19601f82011682018060405250810190610ae79190611359565b6001600160a01b0316336001600160a01b031614610b215760405163979eed0160e01b815260048101829052336024820152604401610611565b610b29610ee5565b610b35868686866103f1565b915081604001515f1480610b4b57506060820151155b610dc0575f8681526002602052604080822090840151815491929091839190610b759084906113aa565b909155505060408301516001820180545f90610b929084906113bd565b90915550506060830151604051631fbb043f60e21b81526004810189905260248101919091525f907f00000000000000000000000000000000000000000000000000000000000000006001600160a01b031690637eec10fc906044016020604051808303815f875af1158015610c0a573d5f5f3e3d5ffd5b505050506040513d601f19601f82011682018060405250810190610c2e9190611342565b90508360600151811015610c90575f818560600151610c4d91906113aa565b905080835f015f828254610c6191906113bd565b9250508190555080836001015f828254610c7b91906113aa565b90915550505060408401819052606084018190525b805f03610c9e575050610dc0565b8360600151826002015f828254610cb591906113bd565b925050819055505f610ccf85604001518660600151610ecc565b60038401805491925082915f90610cf09084906001600160801b03166113ef565b82546101009290920a6001600160801b038181021990931691831602179091556003850180546affffffffffffffffffffff60801b1916600160801b62ffffff8d160267ffffffffffffffff60981b191617600160981b4367ffffffffffffffff1602179081905560208881015189516040808c01516060808e01518351928352958201959095529490951694840194909452600290810b94509290920b918c917fd5319593a06aac7351fae1c979ea836d1511c8111e1d7c51d19b71b2fd707760910160405180910390a45050505b610dc960018055565b50949350505050565b610dda610ea0565b610e0f6001600160a01b037f000000000000000000000000000000000000000000000000000000000000000016333084610fc2565b5f8281526002602052604081208054839290610e2c9084906113bd565b909155505060405181815282907feb9a2444e85df2d17ce02ee7b740e95e39b1dc316aba58ad59e1a5132695568c906020016103e5565b610e6b610ea0565b6001600160a01b038116610e9457604051631e4fbdf760e01b81525f6004820152602401610611565b610e9d81610f0f565b50565b5f546001600160a01b031633146108d75760405163118cdaa760e01b8152336004820152602401610611565b5f818310610eda5781610edc565b825b90505b92915050565b600260015403610f0857604051633ee5aeb560e01b815260040160405180910390fd5b6002600155565b5f80546001600160a01b038381166001600160a01b0319831681178455604051919092169283917f8be0079c531659141344cd1fd0a4f28419497f9722a3daafe3b4186f6b6457e09190a35050565b6040516001600160a01b03838116602483015260448201839052610fbd91859182169063a9059cbb906064015b604051602081830303815290604052915060e01b6020820180516001600160e01b038381831617835250505050611001565b505050565b6040516001600160a01b038481166024830152838116604483015260648201839052610ffb9186918216906323b872dd90608401610f8b565b50505050565b5f6110156001600160a01b03841683611062565b905080515f14158015611039575080806020019051810190611037919061140e565b155b15610fbd57604051635274afe760e01b81526001600160a01b0384166004820152602401610611565b6060610edc83835f845f5f856001600160a01b031684866040516110869190611429565b5f6040518083038185875af1925050503d805f81146110c0576040519150601f19603f3d011682016040523d82523d5f602084013e6110c5565b606091505b50915091506110d58683836110e1565b925050505b9392505050565b6060826110f6576110f18261113d565b6110da565b815115801561110d57506001600160a01b0384163b155b1561113657604051639996b31560e01b81526001600160a01b0385166004820152602401610611565b50806110da565b80511561114d5780518082602001fd5b604051630a12f52160e11b815260040160405180910390fd5b6001600160a01b0381168114610e9d575f5ffd5b8015158114610e9d575f5ffd5b5f5f60408385031215611198575f5ffd5b82356111a381611166565b915060208301356111b38161117a565b809150509250929050565b803561ffff811681146111cf575f5ffd5b919050565b5f5f5f5f608085870312156111e7575f5ffd5b843593506020850135600281900b81146111ff575f5ffd5b925061120d604086016111be565b915060608501356001600160801b0381168114611228575f5ffd5b939692955090935050565b5f5f60408385031215611244575f5ffd5b82359150611254602084016111be565b90509250929050565b5f6020828403121561126d575f5ffd5b5035919050565b5f60208284031215611284575f5ffd5b81356110da81611166565b5f5f5f606084860312156112a1575f5ffd5b8335925060208401356112b381611166565b929592945050506040919091013590565b5f5f604083850312156112d5575f5ffd5b50508035926020909101359150565b634e487b7160e01b5f52601160045260245ffd5b600282810b9082900b03627fffff198112627fffff82131715610edf57610edf6112e4565b600281810b9083900b01627fffff8113627fffff1982121715610edf57610edf6112e4565b5f60208284031215611352575f5ffd5b5051919050565b5f60208284031215611369575f5ffd5b81516110da81611166565b8082028115828204841417610edf57610edf6112e4565b5f826113a557634e487b7160e01b5f52601260045260245ffd5b500490565b81810381811115610edf57610edf6112e4565b80820180821115610edf57610edf6112e4565b6001600160801b038281168282160390811115610edf57610edf6112e4565b6001600160801b038181168382160190811115610edf57610edf6112e4565b5f6020828403121561141e575f5ffd5b81516110da8161117a565b5f82518060208501845e5f92019182525091905056fea164736f6c634300081e000a","linkReferences":{}},"methodIdentifiers":{"creditIssuedToken0(bytes32,uint256)":"cd137829","depositToken0(bytes32,uint256)":"e2ab86e3","executeJITAdd(bytes32,int24,uint16,uint128)":"dcdb704c","executeJITRemove(bytes32,uint16)":"42a8a10f","inventoryState(bytes32)":"65d770f7","issuanceModules(address)":"7a37d79a","launchController()":"14b20886","owner()":"8da5cb5b","quoteAddLiquidityForTick(bytes32,int24,uint16,uint128)":"2865e905","quoteVault()":"aa8d399b","renounceOwnership()":"715018a6","setIssuanceModule(address,bool)":"14f1d4f1","token0()":"0dfe1681","transferOwnership(address)":"f2fde38b","withdrawToken0(bytes32,address,uint256)":"a9092578"},"id":92}