{"abi":[{"type":"constructor","inputs":[{"name":"_minUpdateDelayBlocks","type":"uint64","internalType":"uint64"},{"name":"_maxAdminStepBps","type":"uint16","internalType":"uint16"},{"name":"initialOwner","type":"address","internalType":"address"}],"stateMutability":"nonpayable"},{"type":"function","name":"BPS_DENOMINATOR","inputs":[],"outputs":[{"name":"","type":"uint16","internalType":"uint16"}],"stateMutability":"view"},{"type":"function","name":"allowlisted","inputs":[{"name":"","type":"bytes32","internalType":"PoolId"},{"name":"","type":"address","internalType":"address"}],"outputs":[{"name":"","type":"bool","internalType":"bool"}],"stateMutability":"view"},{"type":"function","name":"consumeJitAction","inputs":[{"name":"poolId","type":"bytes32","internalType":"PoolId"}],"outputs":[{"name":"","type":"bool","internalType":"bool"}],"stateMutability":"nonpayable"},{"type":"function","name":"currentJitCounterBlock","inputs":[{"name":"","type":"bytes32","internalType":"PoolId"}],"outputs":[{"name":"","type":"uint64","internalType":"uint64"}],"stateMutability":"view"},{"type":"function","name":"currentSwapCounterBlock","inputs":[{"name":"","type":"bytes32","internalType":"PoolId"}],"outputs":[{"name":"","type":"uint64","internalType":"uint64"}],"stateMutability":"view"},{"type":"function","name":"enforceSwapGuardrails","inputs":[{"name":"poolId","type":"bytes32","internalType":"PoolId"},{"name":"sender","type":"address","internalType":"address"},{"name":"amountIn","type":"uint256","internalType":"uint256"},{"name":"impactBps","type":"uint256","internalType":"uint256"}],"outputs":[{"name":"snapshot","type":"tuple","internalType":"struct GuardrailSnapshot","components":[{"name":"phase","type":"uint8","internalType":"enum LaunchPhase"},{"name":"maxAmountIn","type":"uint128","internalType":"uint128"},{"name":"maxImpactBps","type":"uint16","internalType":"uint16"},{"name":"cooldownBlocks","type":"uint16","internalType":"uint16"},{"name":"maxSwapsPerBlock","type":"uint16","internalType":"uint16"},{"name":"maxJitActionsPerBlock","type":"uint16","internalType":"uint16"},{"name":"jitBandWidth","type":"uint16","internalType":"uint16"},{"name":"maxInventoryUsagePerJit","type":"uint128","internalType":"uint128"},{"name":"allowlistActive","type":"bool","internalType":"bool"}]}],"stateMutability":"nonpayable"},{"type":"function","name":"executeConfigUpdate","inputs":[{"name":"poolId","type":"bytes32","internalType":"PoolId"}],"outputs":[],"stateMutability":"nonpayable"},{"type":"function","name":"getGuardrails","inputs":[{"name":"poolId","type":"bytes32","internalType":"PoolId"}],"outputs":[{"name":"","type":"tuple","internalType":"struct GuardrailSnapshot","components":[{"name":"phase","type":"uint8","internalType":"enum LaunchPhase"},{"name":"maxAmountIn","type":"uint128","internalType":"uint128"},{"name":"maxImpactBps","type":"uint16","internalType":"uint16"},{"name":"cooldownBlocks","type":"uint16","internalType":"uint16"},{"name":"maxSwapsPerBlock","type":"uint16","internalType":"uint16"},{"name":"maxJitActionsPerBlock","type":"uint16","internalType":"uint16"},{"name":"jitBandWidth","type":"uint16","internalType":"uint16"},{"name":"maxInventoryUsagePerJit","type":"uint128","internalType":"uint128"},{"name":"allowlistActive","type":"bool","internalType":"bool"}]}],"stateMutability":"view"},{"type":"function","name":"getLaunchConfig","inputs":[{"name":"poolId","type":"bytes32","internalType":"PoolId"}],"outputs":[{"name":"","type":"tuple","internalType":"struct LaunchConfig","components":[{"name":"startBlock","type":"uint64","internalType":"uint64"},{"name":"preLaunchBlocks","type":"uint32","internalType":"uint32"},{"name":"launchBlocks","type":"uint32","internalType":"uint32"},{"name":"allowlistBlocks","type":"uint32","internalType":"uint32"},{"name":"initialMaxAmountIn","type":"uint128","internalType":"uint128"},{"name":"steadyMaxAmountIn","type":"uint128","internalType":"uint128"},{"name":"maxInventoryUsagePerJit","type":"uint128","internalType":"uint128"},{"name":"initialMaxImpactBps","type":"uint16","internalType":"uint16"},{"name":"steadyMaxImpactBps","type":"uint16","internalType":"uint16"},{"name":"cooldownBlocks","type":"uint16","internalType":"uint16"},{"name":"maxSwapsPerBlock","type":"uint16","internalType":"uint16"},{"name":"maxJitActionsPerBlock","type":"uint16","internalType":"uint16"},{"name":"jitBandWidth","type":"uint16","internalType":"uint16"},{"name":"preLaunchSwapsEnabled","type":"bool","internalType":"bool"},{"name":"allowlistEnabled","type":"bool","internalType":"bool"}]}],"stateMutability":"view"},{"type":"function","name":"getPhase","inputs":[{"name":"poolId","type":"bytes32","internalType":"PoolId"}],"outputs":[{"name":"","type":"uint8","internalType":"enum LaunchPhase"}],"stateMutability":"view"},{"type":"function","name":"hookForPool","inputs":[{"name":"","type":"bytes32","internalType":"PoolId"}],"outputs":[{"name":"","type":"address","internalType":"address"}],"stateMutability":"view"},{"type":"function","name":"jitActionsInBlock","inputs":[{"name":"","type":"bytes32","internalType":"PoolId"}],"outputs":[{"name":"","type":"uint32","internalType":"uint32"}],"stateMutability":"view"},{"type":"function","name":"lastSwapBlockByTrader","inputs":[{"name":"","type":"bytes32","internalType":"PoolId"},{"name":"","type":"address","internalType":"address"}],"outputs":[{"name":"","type":"uint64","internalType":"uint64"}],"stateMutability":"view"},{"type":"function","name":"maxAdminStepBps","inputs":[],"outputs":[{"name":"","type":"uint16","internalType":"uint16"}],"stateMutability":"view"},{"type":"function","name":"minUpdateDelayBlocks","inputs":[],"outputs":[{"name":"","type":"uint64","internalType":"uint64"}],"stateMutability":"view"},{"type":"function","name":"owner","inputs":[],"outputs":[{"name":"","type":"address","internalType":"address"}],"stateMutability":"view"},{"type":"function","name":"queueConfigUpdate","inputs":[{"name":"poolId","type":"bytes32","internalType":"PoolId"},{"name":"nextConfig","type":"tuple","internalType":"struct LaunchConfig","components":[{"name":"startBlock","type":"uint64","internalType":"uint64"},{"name":"preLaunchBlocks","type":"uint32","internalType":"uint32"},{"name":"launchBlocks","type":"uint32","internalType":"uint32"},{"name":"allowlistBlocks","type":"uint32","internalType":"uint32"},{"name":"initialMaxAmountIn","type":"uint128","internalType":"uint128"},{"name":"steadyMaxAmountIn","type":"uint128","internalType":"uint128"},{"name":"maxInventoryUsagePerJit","type":"uint128","internalType":"uint128"},{"name":"initialMaxImpactBps","type":"uint16","internalType":"uint16"},{"name":"steadyMaxImpactBps","type":"uint16","internalType":"uint16"},{"name":"cooldownBlocks","type":"uint16","internalType":"uint16"},{"name":"maxSwapsPerBlock","type":"uint16","internalType":"uint16"},{"name":"maxJitActionsPerBlock","type":"uint16","internalType":"uint16"},{"name":"jitBandWidth","type":"uint16","internalType":"uint16"},{"name":"preLaunchSwapsEnabled","type":"bool","internalType":"bool"},{"name":"allowlistEnabled","type":"bool","internalType":"bool"}]}],"outputs":[],"stateMutability":"nonpayable"},{"type":"function","name":"registerPool","inputs":[{"name":"poolId","type":"bytes32","internalType":"PoolId"},{"name":"hook","type":"address","internalType":"address"},{"name":"config","type":"tuple","internalType":"struct LaunchConfig","components":[{"name":"startBlock","type":"uint64","internalType":"uint64"},{"name":"preLaunchBlocks","type":"uint32","internalType":"uint32"},{"name":"launchBlocks","type":"uint32","internalType":"uint32"},{"name":"allowlistBlocks","type":"uint32","internalType":"uint32"},{"name":"initialMaxAmountIn","type":"uint128","internalType":"uint128"},{"name":"steadyMaxAmountIn","type":"uint128","internalType":"uint128"},{"name":"maxInventoryUsagePerJit","type":"uint128","internalType":"uint128"},{"name":"initialMaxImpactBps","type":"uint16","internalType":"uint16"},{"name":"steadyMaxImpactBps","type":"uint16","internalType":"uint16"},{"name":"cooldownBlocks","type":"uint16","internalType":"uint16"},{"name":"maxSwapsPerBlock","type":"uint16","internalType":"uint16"},{"name":"maxJitActionsPerBlock","type":"uint16","internalType":"uint16"},{"name":"jitBandWidth","type":"uint16","internalType":"uint16"},{"name":"preLaunchSwapsEnabled","type":"bool","internalType":"bool"},{"name":"allowlistEnabled","type":"bool","internalType":"bool"}]}],"outputs":[],"stateMutability":"nonpayable"},{"type":"function","name":"renounceOwnership","inputs":[],"outputs":[],"stateMutability":"nonpayable"},{"type":"function","name":"setAllowlist","inputs":[{"name":"poolId","type":"bytes32","internalType":"PoolId"},{"name":"user","type":"address","internalType":"address"},{"name":"allowed","type":"bool","internalType":"bool"}],"outputs":[],"stateMutability":"nonpayable"},{"type":"function","name":"setPoolHook","inputs":[{"name":"poolId","type":"bytes32","internalType":"PoolId"},{"name":"hook","type":"address","internalType":"address"}],"outputs":[],"stateMutability":"nonpayable"},{"type":"function","name":"swapsInBlock","inputs":[{"name":"","type":"bytes32","internalType":"PoolId"}],"outputs":[{"name":"","type":"uint32","internalType":"uint32"}],"stateMutability":"view"},{"type":"function","name":"transferOwnership","inputs":[{"name":"newOwner","type":"address","internalType":"address"}],"outputs":[],"stateMutability":"nonpayable"},{"type":"event","name":"AllowlistUpdated","inputs":[{"name":"poolId","type":"bytes32","indexed":true,"internalType":"PoolId"},{"name":"user","type":"address","indexed":true,"internalType":"address"},{"name":"allowed","type":"bool","indexed":false,"internalType":"bool"}],"anonymous":false},{"type":"event","name":"ConfigUpdateExecuted","inputs":[{"name":"poolId","type":"bytes32","indexed":true,"internalType":"PoolId"}],"anonymous":false},{"type":"event","name":"ConfigUpdateQueued","inputs":[{"name":"poolId","type":"bytes32","indexed":true,"internalType":"PoolId"},{"name":"executableAt","type":"uint64","indexed":false,"internalType":"uint64"}],"anonymous":false},{"type":"event","name":"OwnershipTransferred","inputs":[{"name":"previousOwner","type":"address","indexed":true,"internalType":"address"},{"name":"newOwner","type":"address","indexed":true,"internalType":"address"}],"anonymous":false},{"type":"event","name":"PoolHookUpdated","inputs":[{"name":"poolId","type":"bytes32","indexed":true,"internalType":"PoolId"},{"name":"hook","type":"address","indexed":true,"internalType":"address"}],"anonymous":false},{"type":"event","name":"PoolRegistered","inputs":[{"name":"poolId","type":"bytes32","indexed":true,"internalType":"PoolId"},{"name":"hook","type":"address","indexed":true,"internalType":"address"},{"name":"startBlock","type":"uint64","indexed":false,"internalType":"uint64"}],"anonymous":false},{"type":"error","name":"AdminUpdateTooLarge","inputs":[]},{"type":"error","name":"AllowlistRequired","inputs":[{"name":"poolId","type":"bytes32","internalType":"PoolId"},{"name":"sender","type":"address","internalType":"address"}]},{"type":"error","name":"CooldownActive","inputs":[{"name":"poolId","type":"bytes32","internalType":"PoolId"},{"name":"sender","type":"address","internalType":"address"},{"name":"nextBlock","type":"uint256","internalType":"uint256"}]},{"type":"error","name":"ImpactTooHigh","inputs":[{"name":"impactBps","type":"uint256","internalType":"uint256"},{"name":"maxImpactBps","type":"uint256","internalType":"uint256"}]},{"type":"error","name":"InvalidConfig","inputs":[]},{"type":"error","name":"JitCapExceeded","inputs":[{"name":"poolId","type":"bytes32","internalType":"PoolId"}]},{"type":"error","name":"NoPendingUpdate","inputs":[{"name":"poolId","type":"bytes32","internalType":"PoolId"}]},{"type":"error","name":"OwnableInvalidOwner","inputs":[{"name":"owner","type":"address","internalType":"address"}]},{"type":"error","name":"OwnableUnauthorizedAccount","inputs":[{"name":"account","type":"address","internalType":"address"}]},{"type":"error","name":"PendingUpdateNotExecutable","inputs":[{"name":"executableAt","type":"uint64","internalType":"uint64"},{"name":"currentBlock","type":"uint64","internalType":"uint64"}]},{"type":"error","name":"PoolAlreadyConfigured","inputs":[{"name":"poolId","type":"bytes32","internalType":"PoolId"}]},{"type":"error","name":"PoolNotConfigured","inputs":[{"name":"poolId","type":"bytes32","internalType":"PoolId"}]},{"type":"error","name":"PreLaunchSwapsDisabled","inputs":[{"name":"poolId","type":"bytes32","internalType":"PoolId"}]},{"type":"error","name":"SwapAmountTooLarge","inputs":[{"name":"amountIn","type":"uint256","internalType":"uint256"},{"name":"maxAmountIn","type":"uint256","internalType":"uint256"}]},{"type":"error","name":"SwapCapExceeded","inputs":[{"name":"poolId","type":"bytes32","internalType":"PoolId"}]},{"type":"error","name":"UnauthorizedHook","inputs":[{"name":"poolId","type":"bytes32","internalType":"PoolId"},{"name":"caller","type":"address","internalType":"address"}]}],"bytecode":{"object":"0x60c060405234801561000f575f5ffd5b50604051612d4f380380612d4f83398101604081905261002e91610104565b806001600160a01b03811661005c57604051631e4fbdf760e01b81525f600482015260240160405180910390fd5b610065816100b5565b5061ffff8216158061007c575061271061ffff8316115b1561009a576040516306b7c75960e31b815260040160405180910390fd5b506001600160401b0390911660805261ffff1660a05261016a565b5f80546001600160a01b038381166001600160a01b0319831681178455604051919092169283917f8be0079c531659141344cd1fd0a4f28419497f9722a3daafe3b4186f6b6457e09190a35050565b5f5f5f60608486031215610116575f5ffd5b83516001600160401b038116811461012c575f5ffd5b602085015190935061ffff81168114610143575f5ffd5b60408501519092506001600160a01b038116811461015f575f5ffd5b809150509250925092565b60805160a051612baf6101a05f395f81816101de01528181611ed90152611fc501525f81816102d50152610e4a0152612baf5ff3fe608060405234801561000f575f5ffd5b5060043610610148575f3560e01c80638da5cb5b116100bf578063cc711b0211610079578063cc711b02146103b1578063cf57768d146103c4578063e1a45218146103e9578063edebcae1146103f2578063f2fde38b14610405578063fd0c98a214610418575f5ffd5b80638da5cb5b146102f75780638f7f2a2b1461031b578063a4502c7a1461032e578063c01ad73f14610341578063ca6e0ac51461037e578063cb9a4b9a14610391575f5ffd5b806356238dd11161011057806356238dd1146102335780635a952fc41461026d5780635b3bbc26146102a0578063645c1bda146102b3578063715018a6146102c857806374710c7f146102d0575f5ffd5b80631b056fc71461014c57806323c8c602146101915780633a26cdd6146101b9578063428d58ef146101d95780634bf05cdc14610213575b5f5ffd5b61017461015a366004612203565b60096020525f90815260409020546001600160401b031681565b6040516001600160401b0390911681526020015b60405180910390f35b61017461019f366004612203565b60076020525f90815260409020546001600160401b031681565b6101cc6101c7366004612203565b610440565b604051610188919061221a565b6102007f000000000000000000000000000000000000000000000000000000000000000081565b60405161ffff9091168152602001610188565b6102266102213660046123a0565b6105cd565b604051610188919061240c565b610258610241366004612203565b60086020525f908152604090205463ffffffff1681565b60405163ffffffff9091168152602001610188565b61017461027b3660046124c8565b600660209081525f92835260408084209091529082529020546001600160401b031681565b6102266102ae366004612203565b610924565b6102c66102c136600461250a565b610c89565b005b6102c6610d05565b6101747f000000000000000000000000000000000000000000000000000000000000000081565b5f546001600160a01b03165b6040516001600160a01b039091168152602001610188565b6102c6610329366004612558565b610d18565b6102c661033c366004612203565b611197565b61036e61034f3660046124c8565b600560209081525f928352604080842090915290825290205460ff1681565b6040519015158152602001610188565b6102c661038c3660046124c8565b61174a565b6103a461039f366004612203565b6117b3565b604051610188919061257b565b61036e6103bf366004612203565b6118d4565b6102586103d2366004612203565b600a6020525f908152604090205463ffffffff1681565b61020061271081565b6102c6610400366004612589565b6119fd565b6102c66104133660046125c4565b611ae3565b610303610426366004612203565b60046020525f90815260409020546001600160a01b031681565b604080516101e0810182525f80825260208201819052918101829052606081018290526080810182905260a0810182905260c0810182905260e08101829052610100810182905261012081018290526101408101829052610160810182905261018081018290526101a081018290526101c08101919091526104c182611b20565b505f9081526001602081815260409283902083516101e08101855281546001600160401b038116825263ffffffff600160401b8204811694830194909452600160601b8104841695820195909552600160801b948590049092166060830152918201546001600160801b03808216608084015290849004811660a083015260029092015491821660c082015261ffff928204831660e0820152600160901b82048316610100820152600160a01b82048316610120820152600160b01b82048316610140820152600160c01b82048316610160820152600160d01b820490921661018083015260ff600160e01b8204811615156101a0840152600160e81b9091041615156101c082015290565b6105d56121b7565b5f8581526004602052604090205485906001600160a01b0316331461061b5760405163979eed0160e01b8152600481018290523360248201526044015b60405180910390fd5b61062486610924565b91505f8251600281111561063a5761063a6123d8565b14801561065f57505f86815260016020526040902060020154600160e01b900460ff16155b1561068057604051630c72d09960e11b815260048101879052602401610612565b81610100015180156106b457505f8681526005602090815260408083206001600160a01b038916845290915290205460ff16155b156106e45760405163711d236b60e11b8152600481018790526001600160a01b0386166024820152604401610612565b81602001516001600160801b031684111561072a57602082015160405163923cbecb60e01b8152600481018690526001600160801b039091166024820152604401610612565b816040015161ffff1683111561076657604080830151905163184ea29b60e11b81526004810185905261ffff9091166024820152604401610612565b5f8681526006602090815260408083206001600160a01b038916845290915290205460608301516001600160401b039091169061ffff16158015906107b357506001600160401b03811615155b80156107d9575060608301516107d69061ffff166001600160401b0383166125f1565b43105b1561082f578686846060015161ffff16836001600160401b03166107fd91906125f1565b60405163784381d160e01b815260048101939093526001600160a01b0390911660248301526044820152606401610612565b5f878152600760205260409020546001600160401b03164314610889575f878152600760209081526040808320805467ffffffffffffffff1916436001600160401b031617905560089091529020805463ffffffff191690555b5f878152600860205260409020805463ffffffff8082166001011663ffffffff199091168117909155608084015161ffff1610156108dd5760405163357b2b4160e11b815260048101889052602401610612565b50505f9485526006602090815260408087206001600160a01b0396909616875294905292909320805467ffffffffffffffff1916436001600160401b031617905550919050565b61092c6121b7565b61093582611b20565b5f82815260016020818152604080842081516101e08101835281546001600160401b038116825263ffffffff600160401b8204811695830195909552600160601b8104851693820193909352600160801b928390049093166060840152928301546001600160801b03808216608085015290829004811660a084015260029093015492831660c083015261ffff908304811660e0830152600160901b83048116610100830152600160a01b83048116610120830152600160b01b83048116610140830152600160c01b83048116610160830152600160d01b83041661018082015260ff600160e01b8304811615156101a0830152600160e81b90920490911615156101c082015290610a4682611b51565b90505f8080836002811115610a5d57610a5d6123d8565b03610a73575050608082015160e0830151610bb9565b6001836002811115610a8757610a876123d8565b03610bab575f846020015163ffffffff16855f01516001600160401b0316610aaf91906125f1565b610ab99043612604565b90505f856040015163ffffffff16821015610af457604086015163ffffffff16610ae561271084612617565b610aef919061262e565b610af8565b6127105b905061271061ffff168187608001516001600160801b03168860a001516001600160801b0316610b289190612604565b610b329190612617565b610b3c919061262e565b86608001516001600160801b0316610b5491906125f1565b935061271061ffff16818760e0015161ffff1688610100015161ffff16610b7b9190612604565b610b859190612617565b610b8f919061262e565b8660e0015161ffff16610ba291906125f1565b92505050610bb9565b505060a08201516101008301515b5f846101c001518015610bea575060608501518551610be79163ffffffff16906001600160401b03166125f1565b43105b9050604051806101200160405280856002811115610c0a57610c0a6123d8565b8152602001846001600160801b031681526020018361ffff16815260200186610120015161ffff16815260200186610140015161ffff16815260200186610160015161ffff16815260200186610180015161ffff1681526020018660c001516001600160801b0316815260200182151581525095505050505050919050565b610c91611bd6565b610c9a83611b20565b5f8381526005602090815260408083206001600160a01b03861680855290835292819020805460ff1916851515908117909155905190815285917f320a52c35219a095e40bb92ba206034f61b4287cd3b865b3b7c1853e5734dac791015b60405180910390a3505050565b610d0d611bd6565b610d165f611c02565b565b610d20611bd6565b610d2982611b20565b610d3281611c51565b5f8281526001602081815260409283902083516101e08101855281546001600160401b038116825263ffffffff600160401b8204811694830194909452600160601b8104841695820195909552600160801b948590049092166060830152918201546001600160801b03808216608084015290849004811660a083015260029092015491821660c082015261ffff928204831660e0820152600160901b82048316610100820152600160a01b82048316610120820152600160b01b82048316610140820152600160c01b82048316610160820152600160d01b820490921661018083015260ff600160e01b8204811615156101a0840152600160e81b9091041615156101c0820152610e449082611eaa565b5f610e6f7f00000000000000000000000000000000000000000000000000000000000000004361264d565b9050604051806060016040528083803603810190610e8d9190612715565b8152602001826001600160401b031681526020016001151581525060035f8581526020019081526020015f205f820151815f015f820151815f015f6101000a8154816001600160401b0302191690836001600160401b031602179055506020820151815f0160086101000a81548163ffffffff021916908363ffffffff1602179055506040820151815f01600c6101000a81548163ffffffff021916908363ffffffff1602179055506060820151815f0160106101000a81548163ffffffff021916908363ffffffff1602179055506080820151816001015f6101000a8154816001600160801b0302191690836001600160801b0316021790555060a08201518160010160106101000a8154816001600160801b0302191690836001600160801b0316021790555060c0820151816002015f6101000a8154816001600160801b0302191690836001600160801b0316021790555060e08201518160020160106101000a81548161ffff021916908361ffff1602179055506101008201518160020160126101000a81548161ffff021916908361ffff1602179055506101208201518160020160146101000a81548161ffff021916908361ffff1602179055506101408201518160020160166101000a81548161ffff021916908361ffff1602179055506101608201518160020160186101000a81548161ffff021916908361ffff16021790555061018082015181600201601a6101000a81548161ffff021916908361ffff1602179055506101a082015181600201601c6101000a81548160ff0219169083151502179055506101c082015181600201601d6101000a81548160ff02191690831515021790555050506020820151816003015f6101000a8154816001600160401b0302191690836001600160401b0316021790555060408201518160030160086101000a81548160ff021916908315150217905550905050827f739010a4780d27c1c2d5e99575618009ce7295e8881306615dcb50d99c88abd58260405161118a91906001600160401b0391909116815260200190565b60405180910390a2505050565b6111a081611b20565b5f8181526003602081815260409283902083516102408101855281546001600160401b0380821660608401908152600160401b80840463ffffffff9081166080870152600160601b8504811660a0870152600160801b948590041660c086015260018601546001600160801b0380821660e0880152908590048116610100870152600287015490811661012087015293840461ffff908116610140870152600160901b85048116610160870152600160a01b85048116610180870152600160b01b850481166101a0870152600160c01b850481166101c0870152600160d01b8504166101e0860152600160e01b840460ff9081161515610200870152600160e81b909404841615156102208601529084529390950154948516938201939093529204161515918101829052906112ec576040516343a4d28960e11b815260048101839052602401610612565b80602001516001600160401b0316431015611334576020810151604051633debf10d60e01b81526001600160401b039182166004820152439091166024820152604401610612565b805f015160015f8481526020019081526020015f205f820151815f015f6101000a8154816001600160401b0302191690836001600160401b031602179055506020820151815f0160086101000a81548163ffffffff021916908363ffffffff1602179055506040820151815f01600c6101000a81548163ffffffff021916908363ffffffff1602179055506060820151815f0160106101000a81548163ffffffff021916908363ffffffff1602179055506080820151816001015f6101000a8154816001600160801b0302191690836001600160801b0316021790555060a08201518160010160106101000a8154816001600160801b0302191690836001600160801b0316021790555060c0820151816002015f6101000a8154816001600160801b0302191690836001600160801b0316021790555060e08201518160020160106101000a81548161ffff021916908361ffff1602179055506101008201518160020160126101000a81548161ffff021916908361ffff1602179055506101208201518160020160146101000a81548161ffff021916908361ffff1602179055506101408201518160020160166101000a81548161ffff021916908361ffff1602179055506101608201518160020160186101000a81548161ffff021916908361ffff16021790555061018082015181600201601a6101000a81548161ffff021916908361ffff1602179055506101a082015181600201601c6101000a81548160ff0219169083151502179055506101c082015181600201601d6101000a81548160ff02191690831515021790555090505060035f8381526020019081526020015f205f5f82015f5f82015f6101000a8154906001600160401b0302191690555f820160086101000a81549063ffffffff02191690555f8201600c6101000a81549063ffffffff02191690555f820160106101000a81549063ffffffff0219169055600182015f6101000a8154906001600160801b0302191690556001820160106101000a8154906001600160801b030219169055600282015f6101000a8154906001600160801b0302191690556002820160106101000a81549061ffff02191690556002820160126101000a81549061ffff02191690556002820160146101000a81549061ffff02191690556002820160166101000a81549061ffff02191690556002820160186101000a81549061ffff021916905560028201601a6101000a81549061ffff021916905560028201601c6101000a81549060ff021916905560028201601d6101000a81549060ff02191690555050600382015f6101000a8154906001600160401b0302191690556003820160086101000a81549060ff02191690555050817f1f9b31d5cfda9144b705d621b0a97c5bbe003c31bbb83d5eaa540bc78981168660405160405180910390a25050565b611752611bd6565b61175b82611b20565b5f8281526004602052604080822080546001600160a01b0319166001600160a01b0385169081179091559051909184917f3c38d2b5e33f4cfdaba0ebebaeffda756d20423f9073ab944a527d14c6dd86229190a35050565b5f6117bd82611b20565b5f8281526001602081815260409283902083516101e08101855281546001600160401b038116825263ffffffff600160401b8204811694830194909452600160601b8104841695820195909552600160801b948590049092166060830152918201546001600160801b03808216608084015290849004811660a083015260029092015491821660c082015261ffff928204831660e0820152600160901b82048316610100820152600160a01b82048316610120820152600160b01b82048316610140820152600160c01b82048316610160820152600160d01b820490921661018083015260ff600160e01b8204811615156101a0840152600160e81b9091041615156101c08201526118ce90611b51565b92915050565b5f8181526004602052604081205482906001600160a01b031633146119155760405163979eed0160e01b815260048101829052336024820152604401610612565b5f61191f84610924565b90505f81516002811115611935576119356123d8565b03611943575f9250506119f7565b5f848152600960205260409020546001600160401b0316431461199d575f848152600960209081526040808320805467ffffffffffffffff1916436001600160401b0316179055600a9091529020805463ffffffff191690555b5f848152600a60205260409020805463ffffffff8082166001011663ffffffff19909116811790915560a082015161ffff1610156119f157604051636eae173d60e01b815260048101859052602401610612565b60019250505b50919050565b611a05611bd6565b5f8381526002602052604090205460ff1615611a3757604051631521fdbd60e31b815260048101849052602401610612565b611a4081611c51565b5f8381526001602052604090208190611a59828261287a565b50505f838152600260209081526040808320805460ff191660011790556004825290912080546001600160a01b0385166001600160a01b031990911681179091559084907ff3a1f8908a7494146aa4fc1a2faa51705e4c4bc9dbe1e2010dfc78930c330c7390611acb90850185612b36565b6040516001600160401b039091168152602001610cf8565b611aeb611bd6565b6001600160a01b038116611b1457604051631e4fbdf760e01b81525f6004820152602401610612565b611b1d81611c02565b50565b5f8181526002602052604090205460ff16611b1d5760405163aa049c8960e01b815260048101829052602401610612565b80515f906001600160401b0316431015611b6c57505f919050565b5f826020015163ffffffff16835f01516001600160401b0316611b8f91906125f1565b905080431015611ba157505f92915050565b5f836040015163ffffffff1682611bb891906125f1565b905080431015611bcc575060019392505050565b5060029392505050565b5f546001600160a01b03163314610d165760405163118cdaa760e01b8152336004820152602401610612565b5f80546001600160a01b038381166001600160a01b0319831681178455604051919092169283917f8be0079c531659141344cd1fd0a4f28419497f9722a3daafe3b4186f6b6457e09190a35050565b611c5e6020820182612b36565b6001600160401b03165f03611c86576040516306b7c75960e31b815260040160405180910390fd5b611c966060820160408301612b51565b63ffffffff165f03611cbb576040516306b7c75960e31b815260040160405180910390fd5b611ccb60a0820160808301612b6c565b6001600160801b03161580611cf65750611ceb60c0820160a08301612b6c565b6001600160801b0316155b15611d14576040516306b7c75960e31b815260040160405180910390fd5b611d25610100820160e08301612b87565b61ffff161580611d485750611d4261012082016101008301612b87565b61ffff16155b15611d66576040516306b7c75960e31b815260040160405180910390fd5b611d7660c0820160a08301612b6c565b6001600160801b0316611d8f60a0830160808401612b6c565b6001600160801b03161115611db7576040516306b7c75960e31b815260040160405180910390fd5b611dc961012082016101008301612b87565b61ffff16611dde610100830160e08401612b87565b61ffff161115611e01576040516306b7c75960e31b815260040160405180910390fd5b611e1361016082016101408301612b87565b61ffff161580611e365750611e3061018082016101608301612b87565b61ffff16155b15611e54576040516306b7c75960e31b815260040160405180910390fd5b611e666101a082016101808301612b87565b61ffff161580611e8c5750611e8160e0820160c08301612b6c565b6001600160801b0316155b15611b1d576040516306b7c75960e31b815260040160405180910390fd5b611f0182608001516001600160801b0316826080016020810190611ece9190612b6c565b6001600160801b03167f000000000000000000000000000000000000000000000000000000000000000061ffff16612144565b611f1e57604051634c81456960e01b815260040160405180910390fd5b611f428260a001516001600160801b03168260a0016020810190611ece9190612b6c565b611f5f57604051634c81456960e01b815260040160405180910390fd5b611f838260c001516001600160801b03168260c0016020810190611ece9190612b6c565b611fa057604051634c81456960e01b815260040160405180910390fd5b611fed8260e0015161ffff168260e0016020810190611fbf9190612b87565b61ffff167f000000000000000000000000000000000000000000000000000000000000000061ffff16612144565b61200a57604051634c81456960e01b815260040160405180910390fd5b61202b82610100015161ffff1682610100016020810190611fbf9190612b87565b61204857604051634c81456960e01b815260040160405180910390fd5b61206982610120015161ffff1682610120016020810190611fbf9190612b87565b61208657604051634c81456960e01b815260040160405180910390fd5b6120a782610140015161ffff1682610140016020810190611fbf9190612b87565b6120c457604051634c81456960e01b815260040160405180910390fd5b6120e582610160015161ffff1682610160016020810190611fbf9190612b87565b61210257604051634c81456960e01b815260040160405180910390fd5b61212382610180015161ffff1682610180016020810190611fbf9190612b87565b61214057604051634c81456960e01b815260040160405180910390fd5b5050565b5f835f03612154575081156121b0565b828403612163575060016121b0565b5f83851161217a576121758585612604565b612184565b6121848486612604565b90505f6127106121948588612617565b61219e919061262e565b9050805f036121ab575060015b101590505b9392505050565b604080516101208101909152805f81525f6020820181905260408201819052606082018190526080820181905260a0820181905260c0820181905260e082018190526101009091015290565b5f60208284031215612213575f5ffd5b5035919050565b81516001600160401b031681526101e081016020830151612243602084018263ffffffff169052565b50604083015161225b604084018263ffffffff169052565b506060830151612273606084018263ffffffff169052565b50608083015161228e60808401826001600160801b03169052565b5060a08301516122a960a08401826001600160801b03169052565b5060c08301516122c460c08401826001600160801b03169052565b5060e08301516122da60e084018261ffff169052565b506101008301516122f261010084018261ffff169052565b5061012083015161230a61012084018261ffff169052565b5061014083015161232261014084018261ffff169052565b5061016083015161233a61016084018261ffff169052565b5061018083015161235261018084018261ffff169052565b506101a08301516123686101a084018215159052565b506101c083015161237e6101c084018215159052565b5092915050565b80356001600160a01b038116811461239b575f5ffd5b919050565b5f5f5f5f608085870312156123b3575f5ffd5b843593506123c360208601612385565b93969395505050506040820135916060013590565b634e487b7160e01b5f52602160045260245ffd5b6003811061240857634e487b7160e01b5f52602160045260245ffd5b9052565b5f6101208201905061241f8284516123ec565b6001600160801b03602084015116602083015261ffff60408401511660408301526060830151612455606084018261ffff169052565b50608083015161246b608084018261ffff169052565b5060a083015161248160a084018261ffff169052565b5060c083015161249760c084018261ffff169052565b5060e08301516124b260e08401826001600160801b03169052565b5061010083015161237e61010084018215159052565b5f5f604083850312156124d9575f5ffd5b823591506124e960208401612385565b90509250929050565b8015158114611b1d575f5ffd5b803561239b816124f2565b5f5f5f6060848603121561251c575f5ffd5b8335925061252c60208501612385565b9150604084013561253c816124f2565b809150509250925092565b5f6101e082840312156119f7575f5ffd5b5f5f610200838503121561256a575f5ffd5b823591506124e98460208501612547565b602081016118ce82846123ec565b5f5f5f610220848603121561259c575f5ffd5b833592506125ac60208501612385565b91506125bb8560408601612547565b90509250925092565b5f602082840312156125d4575f5ffd5b6121b082612385565b634e487b7160e01b5f52601160045260245ffd5b808201808211156118ce576118ce6125dd565b818103818111156118ce576118ce6125dd565b80820281158282048414176118ce576118ce6125dd565b5f8261264857634e487b7160e01b5f52601260045260245ffd5b500490565b6001600160401b0381811683821601908111156118ce576118ce6125dd565b6040516101e081016001600160401b038111828210171561269b57634e487b7160e01b5f52604160045260245ffd5b60405290565b6001600160401b0381168114611b1d575f5ffd5b803561239b816126a1565b63ffffffff81168114611b1d575f5ffd5b803561239b816126c0565b6001600160801b0381168114611b1d575f5ffd5b803561239b816126dc565b61ffff81168114611b1d575f5ffd5b803561239b816126fb565b5f6101e0828403128015612727575f5ffd5b5061273061266c565b612739836126b5565b8152612747602084016126d1565b6020820152612758604084016126d1565b6040820152612769606084016126d1565b606082015261277a608084016126f0565b608082015261278b60a084016126f0565b60a082015261279c60c084016126f0565b60c08201526127ad60e0840161270a565b60e08201526127bf610100840161270a565b6101008201526127d2610120840161270a565b6101208201526127e5610140840161270a565b6101408201526127f8610160840161270a565b61016082015261280b610180840161270a565b61018082015261281e6101a084016124ff565b6101a08201526128316101c084016124ff565b6101c08201529392505050565b5f81356118ce816126a1565b5f81356118ce816126c0565b5f81356118ce816126dc565b5f81356118ce816126fb565b5f81356118ce816124f2565b6128a46128868361283e565b825467ffffffffffffffff19166001600160401b0391909116178255565b6128dd6128b36020840161284a565b82546bffffffff0000000000000000191660409190911b6bffffffff000000000000000016178255565b6129106128ec6040840161284a565b82805463ffffffff60601b191660609290921b63ffffffff60601b16919091179055565b61294361291f6060840161284a565b82805463ffffffff60801b191660809290921b63ffffffff60801b16919091179055565b6001810161297361295660808501612856565b82546001600160801b0319166001600160801b0391909116178255565b6129a261298260a08501612856565b82546001600160801b031660809190911b6001600160801b031916178255565b50600281016129b661295660c08501612856565b6129e56129c560e08501612862565b82805461ffff60801b191660809290921b61ffff60801b16919091179055565b612a156129f56101008501612862565b82805461ffff60901b191660909290921b61ffff60901b16919091179055565b612a45612a256101208501612862565b82805461ffff60a01b191660a09290921b61ffff60a01b16919091179055565b612a75612a556101408501612862565b82805461ffff60b01b191660b09290921b61ffff60b01b16919091179055565b612aa5612a856101608501612862565b82805461ffff60c01b191660c09290921b61ffff60c01b16919091179055565b612ad5612ab56101808501612862565b82805461ffff60d01b191660d09290921b61ffff60d01b16919091179055565b612b03612ae56101a0850161286e565b82805460ff60e01b191691151560e01b60ff60e01b16919091179055565b612b31612b136101c0850161286e565b82805460ff60e81b191691151560e81b60ff60e81b16919091179055565b505050565b5f60208284031215612b46575f5ffd5b81356121b0816126a1565b5f60208284031215612b61575f5ffd5b81356121b0816126c0565b5f60208284031215612b7c575f5ffd5b81356121b0816126dc565b5f60208284031215612b97575f5ffd5b81356121b0816126fb56fea164736f6c634300081e000a","linkReferences":{}},"methodIdentifiers":{"BPS_DENOMINATOR()":"e1a45218","allowlisted(bytes32,address)":"c01ad73f","consumeJitAction(bytes32)":"cc711b02","currentJitCounterBlock(bytes32)":"1b056fc7","currentSwapCounterBlock(bytes32)":"23c8c602","enforceSwapGuardrails(bytes32,address,uint256,uint256)":"4bf05cdc","executeConfigUpdate(bytes32)":"a4502c7a","getGuardrails(bytes32)":"5b3bbc26","getLaunchConfig(bytes32)":"3a26cdd6","getPhase(bytes32)":"cb9a4b9a","hookForPool(bytes32)":"fd0c98a2","jitActionsInBlock(bytes32)":"cf57768d","lastSwapBlockByTrader(bytes32,address)":"5a952fc4","maxAdminStepBps()":"428d58ef","minUpdateDelayBlocks()":"74710c7f","owner()":"8da5cb5b","queueConfigUpdate(bytes32,(uint64,uint32,uint32,uint32,uint128,uint128,uint128,uint16,uint16,uint16,uint16,uint16,uint16,bool,bool))":"8f7f2a2b","registerPool(bytes32,address,(uint64,uint32,uint32,uint32,uint128,uint128,uint128,uint16,uint16,uint16,uint16,uint16,uint16,bool,bool))":"edebcae1","renounceOwnership()":"715018a6","setAllowlist(bytes32,address,bool)":"645c1bda","setPoolHook(bytes32,address)":"ca6e0ac5","swapsInBlock(bytes32)":"56238dd1","transferOwnership(address)":"f2fde38b"},"id":93}