{"abi":[{"type":"constructor","inputs":[{"name":"_quoteAsset","type":"address","internalType":"contract IERC20"},{"name":"initialOwner","type":"address","internalType":"address"}],"stateMutability":"nonpayable"},{"type":"function","name":"availableQuote","inputs":[{"name":"poolId","type":"bytes32","internalType":"PoolId"}],"outputs":[{"name":"","type":"uint256","internalType":"uint256"}],"stateMutability":"view"},{"type":"function","name":"depositQuote","inputs":[{"name":"poolId","type":"bytes32","internalType":"PoolId"},{"name":"amount","type":"uint256","internalType":"uint256"}],"outputs":[],"stateMutability":"nonpayable"},{"type":"function","name":"owner","inputs":[],"outputs":[{"name":"","type":"address","internalType":"address"}],"stateMutability":"view"},{"type":"function","name":"quoteAsset","inputs":[],"outputs":[{"name":"","type":"address","internalType":"contract IERC20"}],"stateMutability":"view"},{"type":"function","name":"releaseQuote","inputs":[{"name":"poolId","type":"bytes32","internalType":"PoolId"},{"name":"amount","type":"uint256","internalType":"uint256"}],"outputs":[{"name":"released","type":"uint256","internalType":"uint256"}],"stateMutability":"nonpayable"},{"type":"function","name":"renounceOwnership","inputs":[],"outputs":[],"stateMutability":"nonpayable"},{"type":"function","name":"reserveQuote","inputs":[{"name":"poolId","type":"bytes32","internalType":"PoolId"},{"name":"amount","type":"uint256","internalType":"uint256"}],"outputs":[{"name":"reserved","type":"uint256","internalType":"uint256"}],"stateMutability":"nonpayable"},{"type":"function","name":"reservedQuote","inputs":[{"name":"poolId","type":"bytes32","internalType":"PoolId"}],"outputs":[{"name":"","type":"uint256","internalType":"uint256"}],"stateMutability":"view"},{"type":"function","name":"reservers","inputs":[{"name":"","type":"address","internalType":"address"}],"outputs":[{"name":"","type":"bool","internalType":"bool"}],"stateMutability":"view"},{"type":"function","name":"setReserver","inputs":[{"name":"reserver","type":"address","internalType":"address"},{"name":"allowed","type":"bool","internalType":"bool"}],"outputs":[],"stateMutability":"nonpayable"},{"type":"function","name":"transferOwnership","inputs":[{"name":"newOwner","type":"address","internalType":"address"}],"outputs":[],"stateMutability":"nonpayable"},{"type":"function","name":"withdrawQuote","inputs":[{"name":"poolId","type":"bytes32","internalType":"PoolId"},{"name":"recipient","type":"address","internalType":"address"},{"name":"amount","type":"uint256","internalType":"uint256"}],"outputs":[],"stateMutability":"nonpayable"},{"type":"event","name":"OwnershipTransferred","inputs":[{"name":"previousOwner","type":"address","indexed":true,"internalType":"address"},{"name":"newOwner","type":"address","indexed":true,"internalType":"address"}],"anonymous":false},{"type":"event","name":"QuoteDeposited","inputs":[{"name":"poolId","type":"bytes32","indexed":true,"internalType":"PoolId"},{"name":"amount","type":"uint256","indexed":false,"internalType":"uint256"}],"anonymous":false},{"type":"event","name":"QuoteReleased","inputs":[{"name":"poolId","type":"bytes32","indexed":true,"internalType":"PoolId"},{"name":"amount","type":"uint256","indexed":false,"internalType":"uint256"}],"anonymous":false},{"type":"event","name":"QuoteReserved","inputs":[{"name":"poolId","type":"bytes32","indexed":true,"internalType":"PoolId"},{"name":"amount","type":"uint256","indexed":false,"internalType":"uint256"}],"anonymous":false},{"type":"event","name":"QuoteWithdrawn","inputs":[{"name":"poolId","type":"bytes32","indexed":true,"internalType":"PoolId"},{"name":"recipient","type":"address","indexed":true,"internalType":"address"},{"name":"amount","type":"uint256","indexed":false,"internalType":"uint256"}],"anonymous":false},{"type":"event","name":"ReserverUpdated","inputs":[{"name":"reserver","type":"address","indexed":true,"internalType":"address"},{"name":"allowed","type":"bool","indexed":false,"internalType":"bool"}],"anonymous":false},{"type":"error","name":"AddressEmptyCode","inputs":[{"name":"target","type":"address","internalType":"address"}]},{"type":"error","name":"AddressInsufficientBalance","inputs":[{"name":"account","type":"address","internalType":"address"}]},{"type":"error","name":"FailedInnerCall","inputs":[]},{"type":"error","name":"InsufficientFreeQuote","inputs":[{"name":"poolId","type":"bytes32","internalType":"PoolId"},{"name":"requested","type":"uint256","internalType":"uint256"},{"name":"available","type":"uint256","internalType":"uint256"}]},{"type":"error","name":"OwnableInvalidOwner","inputs":[{"name":"owner","type":"address","internalType":"address"}]},{"type":"error","name":"OwnableUnauthorizedAccount","inputs":[{"name":"account","type":"address","internalType":"address"}]},{"type":"error","name":"SafeERC20FailedOperation","inputs":[{"name":"token","type":"address","internalType":"address"}]},{"type":"error","name":"UnauthorizedReserver","inputs":[{"name":"caller","type":"address","internalType":"address"}]}],"bytecode":{"object":"0x60a060405234801561000f575f5ffd5b50604051610b13380380610b1383398101604081905261002e916100de565b806001600160a01b03811661005c57604051631e4fbdf760e01b81525f600482015260240160405180910390fd5b61006581610078565b50506001600160a01b0316608052610116565b5f80546001600160a01b038381166001600160a01b0319831681178455604051919092169283917f8be0079c531659141344cd1fd0a4f28419497f9722a3daafe3b4186f6b6457e09190a35050565b6001600160a01b03811681146100db575f5ffd5b50565b5f5f604083850312156100ef575f5ffd5b82516100fa816100c7565b602084015190925061010b816100c7565b809150509250929050565b6080516109d761013c5f395f81816101dd015281816103c3015261051501526109d75ff3fe608060405234801561000f575f5ffd5b50600436106100b1575f3560e01c80638da5cb5b1161006e5780638da5cb5b14610150578063965610b414610174578063cfac35d414610193578063d6d85c8a146101b2578063f2fde38b146101c5578063fdf262b7146101d8575f5ffd5b806315551e6f146100b557806329c588c0146100ca5780632b57d768146100f0578063715018a614610122578063784bb7741461012a5780637eec10fc1461013d575b5f5ffd5b6100c86100c33660046108a7565b6101ff565b005b6100dd6100d83660046108dc565b610266565b6040519081526020015b60405180910390f35b6101126100fe3660046108fc565b60036020525f908152604090205460ff1681565b60405190151581526020016100e7565b6100c8610343565b6100c8610138366004610915565b610356565b6100dd61014b3660046108dc565b610434565b5f546001600160a01b03165b6040516001600160a01b0390911681526020016100e7565b6100dd610182366004610948565b5f9081526001602052604090205490565b6100dd6101a1366004610948565b5f9081526002602052604090205490565b6100c86101c03660046108dc565b610500565b6100c86101d33660046108fc565b610591565b61015c7f000000000000000000000000000000000000000000000000000000000000000081565b6102076105ce565b6001600160a01b0382165f81815260036020908152604091829020805460ff191685151590811790915591519182527f2beb3cb7ea395c438a13997d4175c7b381ab8587d8f49786a64b922691c9ce9691015b60405180910390a25050565b335f9081526003602052604081205460ff1661029c57604051632dacf0f960e21b81523360048201526024015b60405180910390fd5b5f838152600260205260409020548083116102b757826102b9565b805b9150815f036102cb575f91505061033d565b6102d58282610973565b5f85815260026020908152604080832093909355600190529081208054849290610300908490610986565b909155505060405182815284907f9ae405d814749743f83e310a146fc6fdc746db76cecf771a41510fb77790d997906020015b60405180910390a2505b92915050565b61034b6105ce565b6103545f6105fa565b565b61035e6105ce565b5f838152600160205260409020548082111561039e576040516330e81b8d60e01b8152600481018590526024810183905260448101829052606401610293565b6103a88282610973565b5f858152600160205260409020556103ea6001600160a01b037f0000000000000000000000000000000000000000000000000000000000000000168484610649565b826001600160a01b0316847f9cd0f606c6ace0c89bb8a065e8dd0958c9f5ab8a4e78a1e6e81ab29c439460868460405161042691815260200190565b60405180910390a350505050565b335f9081526003602052604081205460ff1661046557604051632dacf0f960e21b8152336004820152602401610293565b5f838152600160205260409020548083116104805782610482565b805b9150815f03610494575f91505061033d565b61049e8282610973565b5f858152600160209081526040808320939093556002905290812080548492906104c9908490610986565b909155505060405182815284907f1ad9cd0fe65aaa4d0843dddc173d39c7b84e9b07a60d6f92eeb30a827f0ba4bf90602001610333565b6105086105ce565b61053d6001600160a01b037f0000000000000000000000000000000000000000000000000000000000000000163330846106ad565b5f828152600160205260408120805483929061055a908490610986565b909155505060405181815282907f470a5dacc668db92600e8d62b330aab9f530a79514536b40a0cba5c59402e5749060200161025a565b6105996105ce565b6001600160a01b0381166105c257604051631e4fbdf760e01b81525f6004820152602401610293565b6105cb816105fa565b50565b5f546001600160a01b031633146103545760405163118cdaa760e01b8152336004820152602401610293565b5f80546001600160a01b038381166001600160a01b0319831681178455604051919092169283917f8be0079c531659141344cd1fd0a4f28419497f9722a3daafe3b4186f6b6457e09190a35050565b6040516001600160a01b038381166024830152604482018390526106a891859182169063a9059cbb906064015b604051602081830303815290604052915060e01b6020820180516001600160e01b0383818316178352505050506106ec565b505050565b6040516001600160a01b0384811660248301528381166044830152606482018390526106e69186918216906323b872dd90608401610676565b50505050565b5f6107006001600160a01b0384168361074d565b905080515f141580156107245750808060200190518101906107229190610999565b155b156106a857604051635274afe760e01b81526001600160a01b0384166004820152602401610293565b606061075a83835f610761565b9392505050565b6060814710156107865760405163cd78605960e01b8152306004820152602401610293565b5f5f856001600160a01b031684866040516107a191906109b4565b5f6040518083038185875af1925050503d805f81146107db576040519150601f19603f3d011682016040523d82523d5f602084013e6107e0565b606091505b50915091506107f08683836107fa565b9695505050505050565b60608261080f5761080a82610856565b61075a565b815115801561082657506001600160a01b0384163b155b1561084f57604051639996b31560e01b81526001600160a01b0385166004820152602401610293565b508061075a565b8051156108665780518082602001fd5b604051630a12f52160e11b815260040160405180910390fd5b80356001600160a01b0381168114610895575f5ffd5b919050565b80151581146105cb575f5ffd5b5f5f604083850312156108b8575f5ffd5b6108c18361087f565b915060208301356108d18161089a565b809150509250929050565b5f5f604083850312156108ed575f5ffd5b50508035926020909101359150565b5f6020828403121561090c575f5ffd5b61075a8261087f565b5f5f5f60608486031215610927575f5ffd5b833592506109376020850161087f565b929592945050506040919091013590565b5f60208284031215610958575f5ffd5b5035919050565b634e487b7160e01b5f52601160045260245ffd5b8181038181111561033d5761033d61095f565b8082018082111561033d5761033d61095f565b5f602082840312156109a9575f5ffd5b815161075a8161089a565b5f82518060208501845e5f92019182525091905056fea164736f6c634300081e000a","linkReferences":{}},"methodIdentifiers":{"availableQuote(bytes32)":"965610b4","depositQuote(bytes32,uint256)":"d6d85c8a","owner()":"8da5cb5b","quoteAsset()":"fdf262b7","releaseQuote(bytes32,uint256)":"29c588c0","renounceOwnership()":"715018a6","reserveQuote(bytes32,uint256)":"7eec10fc","reservedQuote(bytes32)":"cfac35d4","reservers(address)":"2b57d768","setReserver(address,bool)":"15551e6f","transferOwnership(address)":"f2fde38b","withdrawQuote(bytes32,address,uint256)":"784bb774"},"id":96}